:10000000802600201D4A000013A400004D4A000075
:100010004D4A00004D4A00004D4A0000000000001B
:10002000000000000000000000000000294800005F
:100030004D4A000000000000E14700003BA3000023
:10004000DD490000DD490000DD490000DD49000018
:10005000DD490000DD490000DD490000DD49000008
:10006000DD490000DD490000DD490000DD490000F8
:10007000DD490000DD490000DD490000DD490000E8
:10008000DD490000DD490000DD490000DD490000D8
:10009000DD490000DD490000DD490000DD490000C8
:1000A000DD490000DD490000DD490000D5220000E7
:1000B000DD490000DD490000DD490000DD490000A8
:1000C000DD490000DD490000DD490000DD49000098
:1000D000DD490000DD490000DD490000DD49000088
:1000E000DD490000DD490000DD490000DD49000078
:1000F000DD490000DD490000DD490000DD49000068
:1001000053B94AB9002908BF00281CBF4FF0FF317E
:100110004FF0FF3000F074B9ADF1080C6DE904CE7A
:1001200000F006F8DDF804E0DDE9022304B07047D2
:100130002DE9F047089E04468846002B40F0858054
:100140008A42154648D9B2FA82F24AB1C2F1200772
:1001500001FA02F320FA07F7954047EA03089440B2
:100160004FEA154E230CB8FBFEF71FFA85FC0EFB79
:10017000178843EA084307FB0CF1994209D9EB18A9
:1001800007F1FF3080F0E380994240F2E080023FC7
:100190002B445B1AA4B2B3FBFEF00EFB103344EA0F
:1001A000034400FB0CFCA44509D92C1900F1FF33D2
:1001B00080F0CB80A44540F2C88002382C4440EA4D
:1001C0000740A4EB0C0400271EB1D4400023C6E96D
:1001D00000433946BDE8F087002A53D0B2FA82F2D4
:1001E000002A40F0B680491B4FEA154E1FFA85F8E9
:1001F0000127B1FBFEFC230C0EFB1C1143EA01435B
:1002000008FB0CF1994207D9EB180CF1FF3002D230
:10021000994200F2EC808446591AA3B2B1FBFEF079
:100220000EFB101443EA044408FB00F8A04507D96C
:100230002C1900F1FF3302D2A04500F2DC801846F1
:10024000A4EB080440EA0C40BEE78B4208D9002E1C
:1002500078D00027C6E9000138463946BDE8F08766
:10026000B3FA83F77FB98B4202D3824200F2BD809A
:10027000841A61EB030301209846002EA9D0C6E939
:100280000048A6E7FFDEC7F12005BB4022FA05FCC7
:100290004CEA030C01FA07F420FA05F821FA05F3F9
:1002A0004FEA1C4E48EA0404B3FBFEF9210C0EFB96
:1002B00019331FFA8CF841EA034309FB08FA9A45FF
:1002C00002FA07F200FA07F10BD91CEB030309F15C
:1002D000FF3080F088809A4540F28580A9F10209BC
:1002E0006344A3EB0A03A4B2B3FBFEF00EFB10338E
:1002F00044EA034400FB08F8A04508D91CEB0404B9
:1003000000F1FF336BD2A04569D90238644440EA5A
:100310000940A4EB0804A0FB02894C45C6464B46A5
:1003200054D351D0002E69D0B1EB0E0264EB03041C
:1003300004FA05F522FA07F3FC401D43C6E9005410
:10034000002746E73746304643E7184637E7074673
:100350001FE7C2F1200320FA03F7954001FA02F0EB
:1003600021FA03F34FEA154E3843010CB3FBFEF7B5
:100370001FFA85F80EFB173341EA034107FB08F328
:100380008B4204FA02F407D9691807F1FF3C28D21E
:100390008B4226D9023F2944CB1A81B2B3FBFEF02F
:1003A0000EFB103341EA034100FB08F38B4207D9EF
:1003B000691800F1FF3C10D28B420ED90238294453
:1003C000C91A40EA074714E74145ABD2B8EB020E21
:1003D00069EB0C0201381346A4E76046F0E71846C3
:1003E00095E76746D8E781467BE7384645E7ACF1B5
:1003F000020C2B4410E702382C4421E73746E8E68C
:10040000704700BF10F8012B11F8013B012A28BFEB
:100410009A42F7D0D01A7047034613F8012B002AEE
:10042000FBD1181A0138704710B4094A9368D46890
:10043000002219469C4207D01B68834205D0013236
:10044000D2B201F11403F4E7FF22104610BC70474A
:100450009804002008B5044BD3F85015034808F061
:100460000FFD002008BD00BF0010004020B60000B6
:1004700070B586B00646072906D0194A022109F050
:10048000F4F8002006B070BD154650680AF059FE19
:10049000144C2070A8680AF054FE6070E8680AF0F6
:1004A00050FEE07028690AF04CFEA07068690AF0FE
:1004B00048FE2071A8690AF044FEC0B260716378FA
:1004C000E278A17825790490039502910192009336
:1004D0002378054A0021304609F0C7F8D1E700BF6C
:1004E00080B50000000000205CB5000010B501F0F0
:1004F000A9FF0C4601F0A6FF02462146294808F054
:10050000BFFC294B1B780A2B0FD0142B21D01E2B9C
:100510002CD0282B2ED0322B30D03C2B32D0462B57
:1005200006D1214B0A221A7002E01F4B14221A70C6
:100530001D4B19781D4808F0A3FC1D4C206806F0DF
:1005400065FD01461B4808F09BFC20680AF03BFC57
:1005500010BD194BDA689B689A4203D0124B1E22D9
:100560001A70E5E7104B0A221A70E1E70E4B2822B9
:100570001A70DDE70C4B32221A70D9E70A4B3C2285
:100580001A70D5E70D4B1B781BB10D4B1B78032B55
:1005900003D0054B32221A70CAE7034B46221A7069
:1005A000C6E700BFECB5000084010020F4B50000F0
:1005B0000C06002008B6000098040020651A0020F0
:1005C000661A0020012800D0704738B54FF6FF7337
:1005D000994200D038BD144801F000FD4FF080531F
:1005E000D3F8A420114B1A60114B00241C70AE22CA
:1005F0001A72104B1C705C601A7204F079FC0E4B7E
:1006000018600E480460446084600D4D2A460D4910
:1006100009F005FF0C488460C46004612A460B4958
:1006200009F0FDFED6E700BF38060020E0040020F8
:100630001C0600202806002034060020100600209A
:100640003C0E00209589000098040020A589000038
:1006500070B582B000220023CDE9002342F2676228
:100660000023334806F0EEFE01F0ECFE314BC018DB
:100670004FF0000343EB01012F4B186059602F4AE4
:1006800001F022FF2E4C0521204601F067FB2D4989
:10069000204601F06DFC0821204601F063FC01F0CA
:1006A00087FE01F08FFE284B10221A70274A5A60ED
:1006B000274B03221A70252403E0013A244B1A70B9
:1006C0000134272C32DCE1B21D4801F00FFC184840
:1006D0000AF039FC00224301C10E1B1A154661EBDA
:1006E0000202910041EA93719E000A46331845EBDD
:1006F0000202D10041EA5371D800C30B43EA4143DF
:10070000134A12789A42D8D8104D0B4B1A68AA6037
:100710005B68EB6001F08AFE286069600A4B00228A
:1007200000920ECB064801F0C5FCD0E702B070BDC8
:100730009803002068A7040088040020ED0400004E
:10074000380600208DA9E79C28060020D004002050
:10075000601A002070B582B000220023CDE900238A
:1007600040F2AF720023364806F06CFE01F06AFEDC
:100770004FF6E853334AC0184FF0000343EB010132
:1007800001F0A2FE304C0521204601F0E7FA2F4986
:10079000204601F0EDFB0821204601F0E3FB2C4B45
:1007A00007221A702B4A5A602B49CB6889685B1A5A
:1007B0009B102A4901FB03F329498B71294B03C97B
:1007C00018609980090C997193E80300106091807A
:1007D000090C9171244B03221A70252403E0013A7D
:1007E000214B1A700134272C27DCE1B2164801F0A6
:1007F0007DFB13480AF0A7FB00224301C10E1B1A20
:10080000154661EB0202910041EA93719E000A468F
:10081000331845EB0202D10041EA5371D800C30BF3
:1008200043EA4143104A12789A42D8D8084B0095BF
:100830000ECB054801F03EFCDBE702B070BD00BF07
:1008400098030020ED04000038060020E931C7328B
:1008500028060020F004002098040020CDCCCCCC49
:1008600000000020E8040020601A002070B582B06B
:1008700006460D4600220023CDE900234FF4767290
:100880000023594806F0DEFD01F0DCFD48F6B80310
:10089000564AC0184FF0000343EB010101F014FE6B
:1008A000534C3146204601F021FB0521204601F042
:1008B00055FA5049204601F05BFB0821204601F023
:1008C00051FB4D4B04221A704C4959604C4B1A7025
:1008D0004C4A5A604C4B00221A704C4AD3689168BB
:1008E0005B1A9B104A4A02FB03F39D4229D205EB97
:1008F000850551F82520414B1A603B480AF023FB3F
:1009000000244301C20E1B1A62EB0402910041EA6B
:1009100093719D000A462B1844EB0202D10041EA74
:100920005371D800C30B53EA414317D0A4200021D0
:1009300006F0E8FA304B00940ECB2D4801F0BAFBDC
:10094000DBE7344B1B78002BD7D02C4B4FF0FF321A
:100950001A60314A137801331370CEE722480AF047
:10096000F2FA00210C4601464301C20E1B1A62EB4B
:100970000402900040EA93709D0002466B1844EB1D
:100980000202D10041EA5371D800C30B53EA41433C
:1009900011D10024590CD80340F2E7354FF47A7294
:1009A0000023401944EB0101FFF7AAFB214606F0A2
:1009B000A9FA02B070BD0C480AF0C5FA014643011D
:1009C000C20E1B1A62EB0402900040EA93709D0075
:1009D00002466B1844EB0202D10041EA5371D80081
:1009E000C30B43EA4143D4E798030020ED04000021
:1009F000380600205DA3B5C728060020F8050020B2
:100A00001C060020F4050020631A00209804002032
:100A1000CDCCCCCC651A0020661A00202DE9F0431D
:100A200085B000220023CDE900234FF4804200234B
:100A30002D4806F007FD01F005FD2C4B2C4AC0188F
:100A40004FF0000343EB010101F03EFD294BDA6852
:100A50009B6893422FD0284808F012FA254B9E68D5
:100A6000D3F80C9001E005F114063546B1451CD0D1
:100A7000224808F005FAB468F668A642F3D029685F
:100A800022796388B4F80570B4F8070094F809E097
:100A900094F80A80CDF80C80CDF808E0019000971A
:100AA000174808F0EDF90C34E7E7164808F0E8F9C4
:100AB00005B0BDE8F083144B1C685D68A542F7D013
:100AC00022796388B4F80500B4F80710667AA77A2B
:100AD00003970296019100900C4909680C4808F0B0
:100AE000CFF90C34EAE700BF98030020A8B4070050
:100AF000ED04000098040020B8B40000D0B4000059
:100B0000E0B4000008B5000010060020E00400205A
:100B10001CB500002DE9F04F83B01446012300936B
:100B2000436805685D1BAA10594D05FB02F5594A3B
:100B3000521B002A3DD007468A460195002D3BD026
:100B400001AA126815443A689B1A9B10504A02FB8E
:100B500003F39D4232D34F4B9D4231D8D7F80090DA
:100B60007E68AAEB090B002D2ED04A4B9D4229D856
:100B700005EB850398000AF0C5FA804618EB0B03D5
:100B800013D0226848F80B2022791A7100229A604B
:100B9000DA601A61A1689960A260DA68E168D960D8
:100BA000E2601A692169196122614A465046444649
:100BB00010E039480AF0BBFA6A46C2E7354DCDE786
:100BC000344DCBE70AF0B0FA4FF00008D6E703F156
:100BD000140214341346824215D0002CF7D0126848
:100BE00022601A7922710022A260E2602261996873
:100BF000A1609A60E168DA68E260D96022691969E7
:100C000021611A61E3E71434304602E003F1140A6B
:100C10001434534682451DD0002CF7D0DAF800205A
:100C200022609AF8042022710022A260E260226110
:100C3000DAF80810A160CAF80820E268DAF80C10A7
:100C4000E160CAF80C202269DAF810102161CAF8B4
:100C50001020DBE7CA4603E00AF064FA0AF1140A3E
:100C6000564504D0DAF808000028F5D1F6E7B9F1C6
:100C7000000F02D048460AF055FAC7F800807C60A1
:100C800005EB8505AB004344BB6003B0BDE8F08FC6
:100C9000CDCCCCCCCCCCCC0C34B6000070B588B06C
:100CA00000220023CDE9002349F69A1200235C4874
:100CB00006F0C8FB01F0C6FB5A4B5B4AC0184FF068
:100CC000000343EB010101F0FFFB584C05212046D6
:100CD00001F044F85649204601F04AF9082120461F
:100CE00001F040F9534A04231370534B5360534AA5
:100CF00012681A60524B03221A70252487E0484874
:100D00000AF021F94301C10E1B1A61EB05029100A3
:100D100041EA93719E000A46331845EB0202D10066
:100D200041EA5371D800C30B43EA4143444A107867
:100D3000B3FBF0F30025590CD80340F2E7364FF42B
:100D40007A720023801945EB0101FFF7D9F90246B9
:100D50002B463C49354801F045FAA84239DC304879
:100D60000AF0F1F800224301C10E1B1A154661EB8F
:100D70000202910041EA93719E000A46331845EB46
:100D80000202D10041EA5371D800C30B43EA414348
:100D90002B4A12789A4236D821480AF0D4F84301F7
:100DA000C10E1B1A61EB0502910041EA93719E008E
:100DB0000A46331845EB0202D10041EA5371D800CC
:100DC000C30B43EA41431E4A12789A4297D9002343
:100DD000B0E71C4B5B681868FFF726FBFF28BED105
:100DE00003950495059506950795164A526812686D
:100DF000039203A9144807F0E9FD05980028AED036
:100E00000AF090F9ABE7013A0D4B1A700134272C28
:100E100004DCE1B2054801F069F8A0E708B070BD54
:100E20009803002008631200ED040000380600203B
:100E3000C75C855728060020E4040020E004002059
:100E4000601A00201C060020A00400202DE9F041BB
:100E500006460F4601F114007468844235D007F04D
:100E6000D7FD0546204607F0D3FD8046384607F0FB
:100E7000CFFD0446A8EB05084FEAA808184B03FB72
:100E800008F806E060460AF04DF91435143408F10C
:100E9000FF38B8F1000F18DD2B6823602B79237120
:100EA000D4F808C00021A160E1602161A868A060B9
:100EB000A960E168E868E060E9602169286920616B
:100EC0002961BCF1000FDDD1DFE77368143B73606B
:100ED000986808B10AF026F93846BDE8F08100BFED
:100EE000CDCCCCCC2DE9F04F83B016460123009336
:100EF000436804681C1BA210394C04FB02F4394AF5
:100F0000A24260D0074688460194002C5ED001AA18
:100F1000126814443A689B1A9B10314A02FB03F38F
:100F20009C4255D32F4B9C4254D8D7F80090D7F809
:100F300004A0A8EB090B002C50D02A4B9C424BD8A4
:100F400004EB440398000AF0DDF8054615EB0B03AB
:100F500006D030687168B26845F80B0059609A6035
:100F6000484607F056FD8346404607F052FDA0EB89
:100F70000B06834504D03246594628460AF001F94B
:100F80002E440C36404607F044FD8046504607F09C
:100F900040FDA0EB080A804504D052464146304649
:100FA0000AF0EFF85644B9F1000F02D048460AF0B3
:100FB000B9F83D607E6004EB4404A3001D44BD60AD
:100FC00003B0BDE8F08F08480AF0B1F86A469FE721
:100FD000044CAAE7034CA8E70AF0A6F80025B5E7F9
:100FE000ABAAAAAA5555551534B60000F0B589B07C
:100FF00000220023CDE900234FF420320023B24821
:1010000006F020FA01F01EFAB04BB14AC0184FF0BA
:10101000000343EB010101F057FAAE4CAE4D2178CD
:10102000284600F063FFE178284600F097FEAB49C0
:10103000284600F09DFF6179284600F093FFA278D2
:10104000A74B1A70A74A5A60637825785B1B5BB27E
:101050000133DBB2A44A137013B9134601221A708C
:10106000A24B1A685B689A4201D0A04B5A600023D9
:10107000ADF80C30ADF80E30AE23ADF810309C4B0F
:10108000D3F8103503F00F030F2B40F08880914BFD
:101090001B79002B00F08380012B0AD0022B0DD08E
:1010A000032B10D0042B7AD1914B924AC3F86C26B3
:1010B00075E08F4B904AC3F86C2670E08C4B8F4ADA
:1010C000C3F86C266BE08A4B8D4AC3F86C2666E049
:1010D0007D4809F038FF4301C10E1B1A61EB040281
:1010E000910041EA93719E000A46331844EB0202D4
:1010F000D10041EA5371D800C30B43EA41437A4A15
:101100001278B3FBF2F36EE0784B5A6822F80A4C7F
:101110005A68BDF80C1022F8071C5B68BDF80E2059
:1011200023F8052CBDF81030AE2B00F0AB80BDF8D5
:1011300010106E4B5A6802F8031C5B6803F8086CC9
:10114000704809F000FF00214301C40E1B1A64EB34
:101150000102940044EA93749E00331844EB0101A9
:10116000CA0042EA5372D800C30B43EA4242002A43
:1011700040F08F800024510CD00340F2E7364FF44A
:101180007A720023801944EB0101FEF7B9FF214672
:1011900005F0B8FE544A1378013B137001354D4BEE
:1011A0005B78AB42C0F28D80474809F0CCFE00224C
:1011B0004301C10E1B1A144661EB0202910041EA81
:1011C00093719E000A46331844EB0202D10041EAB3
:1011D0005371D800C30B43EA4143434A12789A4201
:1011E0007FF676AF00230024590CD80340F2E7368F
:1011F0004FF47A720023801944EB0101FEF780FF5F
:10120000024600200021CDE9000123463D4806F0BA
:1012100019F9EEB23146304800F068FE05940694A4
:10122000079405A9314807F0F5FBA420002105F03B
:1012300069FE344809F087FE00214201C30E121AEC
:101240000F4663EB01018B0043EA92734FEA820C75
:1012500019461CEB000247EB0101CB0043EA527335
:10126000D000C20B42EA4342372A7FF64DAF1C4BF7
:10127000184A127900920ECB174800F01BFF013478
:10128000A4B2D6E7194B5B6813F8023CADF81030F6
:101290004DE71C4809F057FE00214301C40E1B1AFC
:1012A00064EB0102940044EA93749E00331844EB0B
:1012B0000101CA0042EA5372D800C30B43EA42421A
:1012C00058E709B0F0BD00BF98030020C85E4C008D
:1012D000ED040000E80400203806002052A692F435
:1012E00028060020F8040020601A002010060020C4
:1012F00000100040032D2D02002D2D02012D2D0286
:10130000022D2D02C80300202DE9F04F83B01646B0
:1013100001230093436804681C1BA210394C04FB92
:1013200002F4394AA24260D0074688460194002C54
:101330005ED001AA126814443A689B1A9B10314A85
:1013400002FB03F39C4255D32F4B9C4254D8D7F851
:101350000090D7F804A0A8EB090B002C50D02A4B22
:101360009C424BD804EB4403980009F0CBFE0546A1
:1013700015EB0B0306D030687168B26845F80B00B6
:1013800059609A60484607F044FB8346404607F0A0
:1013900040FBA0EB0B06834504D032465946284655
:1013A00009F0EFFE2E440C36404607F032FB804633
:1013B000504607F02EFBA0EB080A804504D05246A9
:1013C0004146304609F0DDFE5644B9F1000F02D027
:1013D000484609F0A7FE3D607E6004EB4404A3008C
:1013E0001D44BD6003B0BDE8F08F084809F09FFEC2
:1013F0006A469FE7044CAAE7034CA8E709F094FE6D
:101400000025B5E7ABAAAAAA5555551534B6000074
:10141000F0B583B00546CD4C637822789B1A013332
:10142000C3EBC3031846D917C94FC7E9000100260B
:10143000590CD80340F2E73C4FF47A72002310EBCA
:101440000C007141FEF75CFE024600200021CDE950
:1014500000013346BF4805F0F5FF00F0F3FF3E689A
:101460007F684FEA471C73014CEAD6629B1B62EB14
:1014700007024FEA820C4CEA937C4FEA830E6246E5
:101480001EEB060347EB0202D60046EA5376DF0066
:10149000C31946EB010143F69820AF4A18184FF0E4
:1014A000000343EB010101F00FF8AC4E052130467B
:1014B00000F054FCAA49304600F05AFD082130469D
:1014C00000F050FD2946304600F010FDA54B0722E4
:1014D0001A70A5495960A54B1A70A54A5A60A2799D
:1014E000A44B1B789A4203D0A34B1B78002B7BD0D4
:1014F000A24A13780133DBB21370032B2BD095482B
:1015000009F021FD00210C4601464301C20E1B1AC1
:1015100062EB0402900040EA93709D0002466B1853
:1015200044EB0202D10041EA5371D800C30B53EAE5
:10153000414314D10024590CD80340F2E7354FF44D
:101540007A720023401944EB0101FEF7D9FD2146D0
:1015500005F0D8FCE4E1134600221A70CFE77D487D
:1015600009F0F1FC01464301C20E1B1A62EB0402B2
:10157000900040EA93709D0002466B1844EB020213
:10158000D10041EA5371D800C30B43EA4143D1E78C
:10159000704809F0D8FC4301C20E1B1A62EB04022A
:1015A000910041EA93719D000A462B1844EB020218
:1015B000D00040EA5370D900CB0B43EA40430024EB
:1015C000590CD80340F2E7354FF47A7200234019E2
:1015D00044EB0101FEF794FD0246234663495F4850
:1015E00000F000FEA04231DC5A4809F0ACFC0024B7
:1015F0004301C20E1B1A62EB0402910041EA93718F
:101600009D000A462B1844EB0202D10041EA5371B7
:10161000D800C30B53EA414336D04E4809F093FC3F
:101620004301C20E1B1A62EB0402910041EA93715E
:101630009D000A462B1844EB0202D00040EA53708A
:10164000D900CB0B53EA4043B9D0A1E7474C6268BD
:1016500013783E4908781B1A4949096803EB43038C
:1016600001EB83031D1D16685E6096889379AE803A
:10167000AB7163681B781B1A03EB4303012201F86B
:101680002320404B1A70AFE7324809F05CFC002180
:101690000C4601464301C20E1B1A62EB0402900085
:1016A00040EA93709D0002466B1844EB0202D100A1
:1016B00041EA5371D800C30B53EA41432DD10024B2
:1016C000590CD80340F2E7354FF47A7200234019E1
:1016D00044EB0101FEF714FD214605F013FC002246
:1016E0000023CDE900234FF4A4720023194805F02C
:1016F000A9FE2146224A536810681B1A9B10224AF1
:1017000002FB03F3994241D201EB410310F823306D
:10171000002B3CD00131C9B2ECE70E4809F013FCB4
:1017200001464301C20E1B1A62EB0402900040EA1C
:1017300093709D0002466B1844EB0202D10041EA0F
:101740005371D800C30B43EA4143B8E7E8040020D3
:101750009004002098030020ED04000038060020CB
:101760009DFCDA3728060020040600201C06002015
:10177000FC050020641A0020651A0020601A002071
:1017800010060020611A0020ABAAAAAA0123744AFD
:101790001278744CA16802EB82029200114408791D
:1017A00001300871A1680A441179032902D0002B85
:1017B00000F084809368D1688B4200D0D36000240D
:1017C00004E043680C3343600134E4B2664A536872
:1017D00012689B1A9B10654901FB03F39C421CD2C3
:1017E0005F4B1B785F49886803EB830300EB830042
:1017F000083004EB440302EB83024168836899429A
:1018000008D00029DDD01668556893680E604D60D9
:101810008B60D6E7FFF778FDD6E7554B1B78002B9A
:1018200036D04F4A13780133DBB213704D49CA6882
:101830008868121A92104F4901FB02F293423AD281
:1018400000224B490A7003EB830300EB83031A71F8
:1018500045494B680C681B1B9B10444901FB03F373
:101860009A422BD202EB42039800002121543E4BB6
:101870001B680344AE20987258723F4800781044A9
:101880001871D9711972597199710132D2B2DFE7A9
:10189000344850F8081F324C237803EB830301EBE4
:1018A0008301FFF7D3FA344A9379013B937123788C
:1018B000013B2370B5E7314B01221A70304A13788F
:1018C0000133DBB21370032B2CD02E4809F03BFB05
:1018D00000210C4601464301C20E1B1A62EB0402B2
:1018E000900040EA93709D0002466B1844EB0202A0
:1018F000D10041EA5371D800C30B53EA414315D1DB
:101900000024590CD80340F2E7354FF47A720023D3
:10191000401944EB0101FEF7F3FB214605F0F2FA12
:1019200003B0F0BD134600221A70CEE7154809F047
:101930000AFB01464301C20E1B1A62EB040290002F
:1019400040EA93709D0002466B1844EB0202D100FE
:1019500041EA5371D800C30B43EA4143D0E700BFCB
:10196000641A00209804002010060020ABAAAAAA3E
:10197000611A0020CDCCCCCCE8040020651A0020F0
:10198000601A00209803002038B5934807F078FAD1
:10199000FA21924808F0DDFD914807F071FA00F055
:1019A000CFFC00F035FD8F4807F06AFA8E4B1968BE
:1019B0008E4807F065FA05F0D1FA8D4B186006E005
:1019C000FEF746FE42F65200002105F09BFA894BD5
:1019D0001B780A3B3C2BFAD801A252F823F000BF37
:1019E000C1190000CF190000CF190000CF19000065
:1019F000CF190000CF190000CF190000CF19000047
:101A0000CF190000CF190000D51A0000CF1900002F
:101A1000CF190000CF190000CF190000CF19000026
:101A2000CF190000CF190000CF190000CF19000016
:101A3000E51A0000CF190000CF190000CF190000EF
:101A4000CF190000CF190000CF190000CF190000F6
:101A5000CF190000CF190000F51A0000CF190000BF
:101A6000CF190000CF190000CF190000CF190000D6
:101A7000CF190000CF190000CF190000CF190000C6
:101A8000651B0000CF190000CF190000CF1900001E
:101A9000CF190000CF190000CF190000CF190000A6
:101AA000CF190000CF1900007D1B0000CF190000E6
:101AB000CF190000CF190000CF190000CF19000086
:101AC000CF190000CF190000CF190000CF19000076
:101AD000C71B0000FFF7E2F849F68630002105F049
:101AE00011FA74E7FEF736FE40F69A10002105F071
:101AF00009FA6CE7FFF77AFA00223F4B1A703F4B66
:101B00001A703F4B1A703F4B1A703F4B1A703F4B85
:101B10009B681A713E494B680C681B1B9B103D4922
:101B200001FB03F39A4215D202EB42039800002115
:101B30002154374B1B680344AE20987258723648C4
:101B4000007810441871D971197259719971013264
:101B5000D2B2DFE7314B00221A703148002105F084
:101B6000D1F934E7284B1978264B1878FEF77EFE1A
:101B700040F2C350002105F0C5F928E7224B19783F
:101B8000204B1878FFF744FC264BD3E900236FF075
:101B90000E004FF0FF318B4208BF824211D00F324E
:101BA0000024510CD00340F2E7354FF47A72002341
:101BB000401944EB0101FEF7A3FA214605F0A2F912
:101BC00005E70022ECE7FEF729FF44F2EC100021C4
:101BD00005F098F9FBE600BF50B60000F8040020BD
:101BE00068B6000084B60000E0040020A4B600003F
:101BF0000C06002084010020651A0020621A0020D3
:101C0000611A0020601A0020641A00209804002045
:101C100010060020ABAAAAAAE8040020661A002039
:101C2000EC8102009004002000B589B0444B1B6891
:101C3000FBB9444B1B68002B5AD0434BD3F81035EB
:101C400003F00F030F2B21D08379002B45D003889D
:101C5000013303803C4BD3F8483503F07F0382887F
:101C600013448380374B00221A601B680393039B45
:101C700009E0364B01221A6003F5827300221A60D4
:101C80001B680193019B09B05DF804FB2E4BD3F850
:101C900004251179D3F82435DBB2994216D1D378D3
:101CA0002949D1F81C15B3EB116F0FD19178264B50
:101CB000D3F81C35C3F30743994207D15278224B1E
:101CC000D3F81C35C3F307239A42BDD01D4B002225
:101CD0001A601B680293029BD5E71A4B00221A6018
:101CE0001B680493049B8368186809F06CF8CAE7C2
:101CF000174B1B6863B18379002BC4D04388013331
:101D00004380134B00221A601B680593059BBAE7BA
:101D1000104B1B681BB9104B1B68002BB3D00D4B2D
:101D200000221A601B680793079B0B4B1A601B6805
:101D30000693069B8368186809F045F8A3E700BF7F
:101D40001C110040301100400010004018100040ED
:101D5000341100400C1100406C11004010B584B0EB
:101D60000C465F4BC3F8101540F20122C3F8502611
:101D700040F20312C3F8342540F25B62C3F8382501
:101D8000584AC3F83C250D220021684609F013FA91
:101D900000238DF8053008228DF800208DF80130E1
:101DA0008DF80230FF228DF808208DF809300322CB
:101DB0008DF80A208DF80B3001228DF80C208DF85B
:101DC0000630043C0B2C0AD8DFE804F0064D4D0920
:101DD000090909090909096501238DF805309DF8EC
:101DE00000309DF8012043EA02239DF8022043EAD7
:101DF00002439DF80320002A6AD04FF48012134357
:101E00009DF8042043EA82539DF8052043EA0263CB
:101E10009DF80620002A5DD04FF0806213439DF8A4
:101E2000072043EA42732E4AC2F814359DF8083061
:101E30009DF8092043EA02239DF80A2043EA024361
:101E40009DF80B20002A47D04FF0807213439DF875
:101E50000C20002A42D04FF000721343204AC2F8EF
:101E6000183504B010BD03238DF8053002228DF81B
:101E700004208DF807307F238DF80830184B40F28E
:101E80000122C3F8502640F20312C3F83425002281
:101E9000C3F83825A3E702238DF8053000238DF819
:101EA0000A307F238DF8083001238DF806300C4B63
:101EB00040F20122C3F8502640F20222C3F8342532
:101EC000094AC3F8382545F25552C3F83C2586E740
:101ED000002294E70022A1E70022B7E70022BCE736
:101EE000001000405555550021100100272910D839
:101EF0001B4BD3F8103503F00F030F2B09D050F80C
:101F000021309AB2B2F5166F09D39BB2A3F51663CE
:101F10000AE0A1F10B03DBB20F2B0DD970479BB286
:101F2000A3F6381343F480730D4AC2F8083501F064
:101F30007F01C2F8541570471D3150F821309AB214
:101F4000B2F5166F07D2A2F6381343F48073044A31
:101F5000C2F8083570479BB2A3F51663F7E700BFD8
:101F600000100040014BC3F80C15704700100040F2
:101F7000C0F8FC13064B0022C3F82C250122C3F83D
:101F800030250A0EC3F824250902C3F81C15704732
:101F90000010004082B00E4B0022C3F800224FF028
:101FA000FF31C3F8081303F588731A601B680093A8
:101FB000009B084B01221A60074B1B68002BFBD0CB
:101FC000054B00221A601B680193019B02B0704709
:101FD000001000401010004010110040F0B583B018
:101FE0000646304CA022214609F0BDF806F1A005B6
:101FF000A0340FCC0FC50FCC0FC50FCC0FC594E884
:102000000F0085E80F0006F1E8070024A6F8E84075
:10201000A6F8EA40AE23A6F8EC3086F8EE40FF22A0
:10202000214606F1F50009F0C6F87A22214606F2AB
:10203000F91009F0C0F87F22214606F2792009F054
:10204000BAF84FF48072214606F53E7009F0B3F8F5
:1020500006F0FCFC0125144BC3F8FC5FFFF79AFF68
:1020600003213046FFF77AFE10493046FFF780FF24
:102070000B213046FFF73AFF21463046FFF772FF4B
:1020800006F1E003C6F8F03000943B46084A072109
:10209000284608F0A6F9284602F0D6FB304603B0E1
:1020A000F0BD00BFC0B3000000100040D6BE898E56
:1020B000291C0000F0B589B0044601A880E80E0094
:1020C0009DF83870FFF766FF404BD3F8103503F0EA
:1020D0000F030F2B4ED09DF8046084F8F46004F1D8
:1020E000F505FF220021284609F065F832460299DD
:1020F000284609F038F804F1F403C4F8743294F86F
:10210000F430013384F87832D4F874322F4DC5F8A6
:1021100004352F4B00261E601B680793079B2D4B31
:102120001E601B680693069B2B4BC5F8043304F016
:1021300015FFC4F8E000294B1E601B680593059B42
:10214000D5F8103503F00F030F2B30D01F4AD2F80B
:10215000003243F4801343F00303C2F8003201233A
:1021600013604FF40040002104F0CCFEFFF712FF93
:1021700009B0F0BD9DF80450AB1D84F8F431D4F8DB
:10218000FC33C4F8F53104F2F9167A220021304606
:1021900009F011F82A460299304608F0E4FF04F5E8
:1021A000FA73C4F87432053584F87852ACE7002F1E
:1021B000CCD0D5F8003243F4872343F00203C5F8AE
:1021C0000032074B01221A60CBE700BF001000402D
:1021D0000C1100406C110040080000081011004074
:1021E000041000402DE9F04182B0044688461646AE
:1021F0001F46FFF7CFFE334BD3F8103503F00F0324
:102200000F2B4BD004F53E754FF480720021284609
:1022100008F0D1FFC4F8F853D4F8F833294DC5F8C5
:102220000435294B00221A601B680193019B4FF46F
:102230008053C5F8043304F091FEC4F8E000D5F8EB
:10224000003243F4001343F03103C5F800321F4B52
:1022500001221A603046394604F054FE051E14DD92
:10226000184AD2F8483503F07F0388F80830D2F8CE
:10227000103503F00F030F2B1AD0D4F8F83313F8EE
:10228000012B88F80020C8F80430114B01221A6095
:10229000FFF780FE284602B0BDE8F08104F2792500
:1022A0007F220021284608F086FFC4F8F853B3E7E0
:1022B000D4F8F83313F8052B063A88F80020C8F84C
:1022C0000430E2E7001000403011004004100040EC
:1022D00018100040684620F007018D4601B5144BE8
:1022E0001B68D3F85421012A0BD0D3F85021012ABE
:1022F0000FD002F0F1FA02F09BFCBDE801408546E8
:1023000070470022C3F854210A490A6801320A6062
:10231000EBE70022C3F85021074B1B68002BE8D0E5
:10232000044A1168054A12689142E2D19847E0E7F1
:1023300008000020380A0020400A00203C0A002043
:1023400010B5194C2368D3F8082542F00302C3F8EE
:102350000825D3F8102522F00F0242F00402C3F83A
:102360001025D3F8042522F00302C3F80425002227
:1023700006211B2002F09AFA1B2002F065FA23685E
:102380000122DA600022C3F84425C3F848254FF043
:10239000FF31C3F85415D3F8041341F40011C3F806
:1023A0000413024B1A6010BD08000020380A0020F8
:1023B000034B1B680022C3F84425C3F84825704727
:1023C000080000200E4B0F4AC3F8A0250E4A1268E1
:1023D00002F14401C3F8A415D3F8041541F4802197
:1023E000C3F804150949C3F8A8154832C3F8AC2549
:1023F000D3F8042542F40022C3F80425704700BF37
:1024000000F001400C110040080000203011004095
:10241000044B1B680122DA601A60034B00221A6029
:10242000704700BF08000020380A0020034B1B68DB
:10243000D3F84405024B1968704700BF080000201C
:10244000380A00201B4BD3E900011B4BD3E90023C2
:102450008B4208BF824213D3994208BF90421FD2D9
:10246000164B1B6801221A64D3F840351846144BEA
:102470001968144A13685268C01842EB010170478A
:102480000E4B1B6801221A64D3F8403518460C4BDA
:1024900019680C4A13685268C01A61EB0201704750
:1024A000064B1B6801221A64D3F840351846044BCA
:1024B00019687047C0040020B804002008000020FC
:1024C000380A0020B0040020F0B41C4BD3E90067A8
:1024D0001B4BD3E90045BD4208BFB44216D2194C8C
:1024E000236864682144184C21601849096818441D
:1024F000C1F85005154B1968D1F8043343F4801323
:10250000C1F80433124B1A60F0BC7047AF4208BFE9
:10251000A6420BD20B4C23686468091B0A4C21604D
:102520000A490968C01AC1F85005E3E7064B19606B
:10253000064B1B68C3F85005DCE700BFC004002051
:10254000B8040020B00400203C0A0020080000204D
:10255000400A00202DE9F0410546002800F0818066
:102560000378212B04D05E2B02D04FF0000E02E046
:1025700001354FF0010E4FF001084FF0000C57E00D
:1025800012F0010F4BD1A81C6C7823462FB1384DA7
:10259000655D05F00305012D01D0DBB23FE004F1DC
:1025A0002003FAE745782C462FB1314EAE5D06F098
:1025B0000306012E11D014F0FF0434D05D2C32D06C
:1025C000851C5C2C0CD02846002C4ED08B422CDC79
:1025D0008C422ADB4FF0010C27E005F12004EAE7EA
:1025E00012F0010F0FD1C51C807804462FB1204E88
:1025F000865D06F00306012E02D0E4B22846E3E72A
:1026000000F12004F9E72846DEE74FF0010C0CE06A
:10261000DBB25D2B1CD02F2B21D05C2BB0D013B3A1
:1026200004782D2CBED08B42EFD04FF00008054629
:10263000284610F8014B234612F00807E8D00C4E4C
:10264000A65D06F00306012EE2D104F12003DFE7C8
:10265000B8F1000FDFD1F44503D1002001E04FF0C5
:10266000FF30BDE8F0810020FBE70020F9E700BF64
:102670001DC500002DE9F84F002800F022818A4690
:1026800090460546002900F01E8103F1FF3B002B18
:1026900000F01B810F46E4E002F12003EFE083B17C
:1026A0002A2B40F0CF8032781346B9F1000F05D0C5
:1026B0008D49515C01F0030101292ED0DBB2354672
:1026C0002FE018F0100F02D03B782F2B03D03C786E
:1026D000003418BF01242046BDE8F88F3B78002B5A
:1026E00000F0F5802F2B04D02E2B07D00137354674
:1026F000B7E018F0020FF7D00124ECE718F0040F50
:10270000F4D0574500F0E58018F0020FEED017F82E
:10271000013C2F2BEAD10124DDE702F12003CDE7B4
:10272000DBB22A2B0ED115F8012F1346B9F1000F99
:10273000F6D06D49515C01F003010129F0D102F19D
:102740002003EDE73A782E2A0ED0E3B12F2B3ED1AD
:1027500018F0020F3BD02F21384608F05EFD0746E7
:1027600000287ED10124B6E718F0040FEDD05745BC
:1027700000F0B18018F0020FE7D017F8012C2F2AD3
:10278000E3D10124A7E718F00204A4D018F0100444
:1027900001D000249FE72F21384608F03EFD002895
:1027A00099D0012497E718F0020F0FD093E713F0A8
:1027B000FF061AD05B4628F0040239462846FFF788
:1027C00059FF0446012886D12F2EECD001373A78E4
:1027D0001346B9F1000FEAD04349515C01F00301FF
:1027E0000129E4D102F12003E1E7012473E73C78F9
:1027F000002C72D02F2C15D02146B9F1000F05D036
:10280000394BE35C03F00303012B10D04246304602
:10281000FFF7A0FE0546002861D0B0F1FF3F09D0C8
:1028200001371EE018F0020FE6D0012453E704F14F
:102830002001EBE75B2C54D13546F1E713F0FF03A1
:1028400000D02E4617F8012B1146B9F1000F05D024
:102850002548105C00F0030001282DD08B422ED1BA
:1028600035462E4616F8012B134618F0080906D0F7
:102870001D49515C01F0030101293FF40DAFDBB2AA
:102880001C463F2B3FF42AAF7FF709AF5B2BAED03E
:102890005C2BD7D118F0010FD4D102353278134612
:1028A000B9F1000FCAD01049515C01F003010129B0
:1028B000C4D102F12003C1E702F12001CEE70124D7
:1028C00009E7012407E7012405E7032403E70124BE
:1028D00001E70124FFE60124FDE60124FBE60124D3
:1028E000F9E60124F7E600BF1DC5000008B50B6836
:1028F00001330B60014B1B68984708BD0C0000209A
:102900002DE9F04F83B08246019115469B46DDF8D4
:102910003090B9F1000F2CDD4FF001080A26002796
:10292000214C10E0B5FBF4F001993030D04708F1AC
:1029300001080127013EB5FBF4F304FB13551B4BC3
:10294000A3FB0434E408092C16D9002FEAD1AC42C9
:10295000E8D94E45EEDCBBF1020FEBD8BBF1010F1D
:1029600005D020200199D04708F10108E2E7302086
:10297000F8E74FF00109CFE7019905F13000D047A2
:10298000BBF1030F02D003B0BDE8F08FA9EB08083C
:1029900003E001992020D047A04608F1FF34B8F1A8
:1029A000000FF6DCEFE700BF00CA9A3BCDCCCCCCE1
:1029B000014B1860704700BF0C00002000B583B0C9
:1029C000002301930B46024601A9034806F0B8F81C
:1029D00003B05DF804FB00BFED280000F8B5054624
:1029E0000F464FF441720021806808F0E4FBAB68A9
:1029F0002A681A60284606F09CFCA86800F53B701F
:102A000008F082F8002616E0A868340104F5167470
:102A10002044043008F063FBA868031906EB860124
:102A20008A0002F52672104404330022012104308A
:102A300008F02DFB0136032EE6DDAB6900221A609B
:102A4000AB68B3F8581241F01002A3F85822AB68F3
:102A5000B3F8581241F00402A3F85822AB68B3F857
:102A6000581241F02002A3F85822AB6801221A71D3
:102A7000AB6850225A85AB6818221A85AB68186873
:102A8000A0B1FDF7C9FC80B2AB6883F82C00AB683D
:102A9000B3F8581241F00202A3F85822686803689C
:102AA0001C682B46024A3946A047F8BD0020EBE7D8
:102AB0001993000009B10020704710B504468368DF
:102AC0009B68054A022106F0CFFF204606F062FC13
:102AD0006FF0150010BD00BF28B70000F8B5044620
:102AE0000D4616468268516959B1117E61B3537E15
:102AF000FF2B20D0A94221D80B44AB4249D2002160
:102B00001DE08BB15968002945D0D068814206D0BC
:102B100002F108051E460FCE0FC533682B60204614
:102B200006F038FC012732E01C4A022106F09CFF27
:102B30006FF007072BE04FF6FF73DBE7002120461D
:102B4000FFF7B8FF074610BBA06800F53B7003F025
:102B5000F9FDA368B3F8581241F08002A3F8582297
:102B6000A3685B6932462946204698470746A36812
:102B7000B3F858226FF3C712A3F85822A06800F5E3
:102B80003B704FF0FF324FF0FF3303F051FD3846FA
:102B9000F8BD0121D3E76FF00707F8E744B700005D
:102BA00089B1D2680AB90846704710B5044606F0E4
:102BB000E7FE204600F01AFF044A0221204606F0F4
:102BC00053FF002010BD0120704700BFACB70000CC
:102BD0002DE9F0479EB007468668D6F81C90002382
:102BE0000693059304934FF0FF330393383606F0B2
:102BF000C7FE384606F063FE68B3B96800238B60F1
:102C0000CB600B614B618B61384606F01EFEB968E4
:102C10004A8E3831384606F0B8FB384607F016FAC7
:102C2000B9F1000F1CD0D9F800300C930D96B9689B
:102C300003AB019305AB009306AB07AA08314846E6
:102C400006F0DFFA069B013306930DAC4FF0000847
:102C5000C246454650E05E49786906F06FFBCCE716
:102C6000002308930CACF1E700285AD00346594AD8
:102C70000221384606F0F8FE6FF0070087E056495B
:102C80002068FDF7BFFB28B154492068FDF7BAFB67
:102C9000002849D1089B5BB1BC68083407AD0FCD53
:102CA0000FC42B682360384606F074FB01206EE0E9
:102CB0004B4A0221384606F0D7FE6FF0070066E067
:102CC00022682946384607F0E6F9022852D0032840
:102CD0002DD0069B013306934FF0010A0CE019AA90
:102CE0002168484606F068FD054623E04FF00108DC
:102CF00039E0069B01330693049B012B3AD0069BD7
:102D00000C2B37D8039B002B34D0022332462146AC
:102D100004A800F043FD6668049A002A52D0012AF4
:102D2000A2D0069B002BAAD1069B002BC8D1B8F1DC
:102D3000000FD4D00434039B013B0393002DD5D066
:102D40002A4651463846FFF72BFF00283DD0B96888
:102D500003AB019305AB009306AB07AA08312846E5
:102D600006F04FFAA946039B002BC2D1049B022B0D
:102D7000C2D1BEE7BAF1000F0CD1059907AB0CAA7E
:102D800002EB81020698411A3846FFF7A7FE1EB0F3
:102D9000BDE8F087384607F091F9BA68D16900318B
:102DA00018BF01210C2338320CA800EB810106A8C2
:102DB00000F0F4FCBB68DB69002BDED0069B01331E
:102DC0000693DAE76FF00700E1E76FF00700DEE750
:102DD00004B5000064B7000078B700007CB70000BD
:102DE00044B700002DE9F04182B085686C8EFF2C5D
:102DF00046D01E46174688460446AA8E05F138017D
:102E000005F59C7008F0AFF9A3689A8E1344002270
:102E100083F83821A2680C2302F59C723968304689
:102E200000F0BCFCA268908E0138104490F8381075
:102E3000154BCB5C03F008033568ADB10BB9012D20
:102E400012D003B9013DD06900230193099B00937F
:102E5000089B3A68294606F0C6FCC8F8000060B135
:102E6000012002B0BDE8F0810023089A1360A36836
:102E7000DB69C8F800300120F3E71DB90120F0E755
:102E80000020EEE70020ECE71DC50000F8B5044681
:102E90000E461F4692B31046FDF7BEFA85B2A268F1
:102EA00008323946304600F0A3FC0646006838B3C5
:102EB000FDF7B2FA80B2A84224D1A3689A8E1A44D0
:102EC00092F83810184A8A5C12F0080F27D1D3F80C
:102ED000582212F0010F1DD0B3F858226FF30002F0
:102EE000A3F858222021204606F002FEA368B3F87A
:102EF000581241F00102A3F85822F8BD0025CEE790
:102F00000020D8E73168421B92B22944204606F0DF
:102F100009FED2E72021204606F0EAFDEDE7012177
:102F2000204606F0E2FCE8E71DC50000002935D088
:102F30002DE9F04182B00E4614460546DFF87C804C
:102F40004046FDF769FA14FA80F4A4B2AB685F8DCD
:102F50004046FDF761FA83B2FB1A93FBF4F39FB28C
:102F60003046FDF759FA80B2241AA4B2AB681A8E23
:102F7000511C1986B2FBF7F307FB13239BB28BB9E5
:102F8000009643460B4A0721284606F06DFD214670
:102F9000284600F0F3FC02B0BDE8F081836800220F
:102FA0001A8670473346044A0721284606F05CFD1E
:102FB000EDE700BFA0B70000A8B700009CB7000075
:102FC0002DE9F84F074689461D460A9EBDF82CA0FC
:102FD000904652B11046FDF71FFA1FFA80FB524689
:102FE00000213846FFF7A2FF10E04FF0000BF6E794
:102FF000A3681BB1002319E0002317E0012315E0AB
:10300000524621683846FFF791FF013EE6B1BA68A3
:1030100008322946484600F0EBFB044601350068BB
:103020000028E9D0E368002BE2D00023002BEDD18B
:10303000B8F1000FE4D00028E2D05A46414608F02B
:1030400001F90028DCD0E1E70449786906F076F957
:10305000384606F095FDBDE8F88F00BF04B50000C6
:1030600030B583B004460D468368D3F8582212F079
:10307000400F30D1E368DB68002B36D0A2680DF139
:10308000060338322946E06806F0F4FE68B9A06805
:1030900000F59C71383008F0CDF8A06838303AD08F
:1030A000FDF7BAF980B2ADF80600204606F060FCE4
:1030B0001A4A1B49606906F041F9204600F024FDD8
:1030C000A268BDF806309386A2685386204600F0B9
:1030D0008DFC03B030BDB3F858226FF38612A3F80D
:1030E0005822C06806F0C3FEC4E7002DF1D0A068E6
:1030F00038300BD0FDF790F980B238B1A06800F1FC
:10310000380100F59C7008F095F8B7E7A368002235
:1031100083F83821B2E70020C5E700BF18B70000E8
:10312000A8B7000038B50446013916290FD8DFE8E2
:1031300001F00C0F12292C2F0E0E0E0E32350E44FC
:103140000E480E0E0E0E4C0E5E0006F011FC38BD41
:1031500006F01FFCFBE706F013FC204606F0AFFB71
:1031600058B1A368B3F8581241F04002A3F85822AE
:103170000221204606F0F0F8E9E72249606906F0EE
:10318000DDF8EEE706F0D2FCE1E706F0F9FBDEE75A
:1031900006F009FCDBE700F083FCD8E71A4D1B4A78
:1031A0002946406906F0CAF8194A2946606906F0BE
:1031B000C5F8204606F0E4FCC9E70021FFF750FF00
:1031C000C5E70121FFF74CFFC1E706F0D1FB204620
:1031D00005F0FCFFA368B3F8581241F04002A3F8D1
:1031E00058220C4A0849606906F0A8F8AFE700F0D9
:1031F000CBFCA368B3F8581241F04002A3F8582260
:10320000A5E700BF04B50000A8B700001CB7000088
:1032100020B7000018B7000030B583B00446002383
:103220000193E8E0204606F013F8F8B99DF8031082
:10323000092948D02DD91B2941D07F2958D1A3680D
:10324000D3F8582212F0040F00F0D580B3F85812CA
:1032500041F04002A3F85822A368D3F8583213F083
:10326000200F41D0204606F07BFCC4E0A3685B8EB3
:103270005BB9204606F07DF87149606906F05EF89A
:103280000221204606F068F8B5E02046FFF7A0FCD2
:10329000F6E7002900F0AF80082929D1A368D3F808
:1032A000582212F0040F00F0A680B3F8581241F033
:1032B0004002A3F85822204606F052FC9BE0A36887
:1032C00001225A7197E0A368D3F8582212F0040F34
:1032D00000F09180B3F8581241F04002A3F8582250
:1032E000204606F010F986E0204606F01FFC82E03A
:1032F000544BCB5C13F0970F09D1A368D3F8583225
:1033000013F0040F77D02046FFF70CFF73E0A3689B
:10331000B3F8580240F04002A3F85822204606F0C5
:10332000E7FB68E05B2908D0D2F8583213F0040FAD
:1033300006D1A36800225A715DE0022353715AE05E
:10334000204606F029F9F4E700235371A368D3F867
:10335000582212F0040F4ED031391B294BD8DFE828
:1033600001F0262C3C204A4A4A4A4A4A4A4A4A4ADA
:103370004A4A0E13181C4A224A284A4A4A2E012158
:103380002046FFF76DFE36E000212046FFF768FE7D
:1033900031E0204606F007FB2DE0204606F0F9FA62
:1033A00029E003225A71204606F0EAFA23E00322BC
:1033B0005A71204606F0DCFA1DE003225A71A26819
:1033C000D2F8583203F0010383F00103B2F8581227
:1033D00063F30001A2F858120DE003225A71A368AA
:1033E000D3F8583213F0040F05D0204606F09EFBA8
:1033F00001E000235371606803681D6901AB01227D
:103400000DF10301A847019BBBB19DF8031011F01A
:10341000800FF0D1A2685379032B0BD801A050F88C
:1034200023F000BF2532000025330000493300009F
:10343000F333000000235371DDE703B030BD00BF5C
:1034400004B500001DC5000070B588B004461E46D6
:10345000FFF7C4FA054610B1284608B070BD606A8F
:10346000A16A00220023CDE90623002304930E2342
:1034700003930C9B029301960094064B4FF4006259
:1034800007F0F2FCA368C3F80003216A07F0DDFC33
:10349000E2E700BFC934000083681B79012B0ED11D
:1034A00010B50446002100F039FB0649606905F0BB
:1034B00045FF0221204605F04FFF002010BD6FF0B0
:1034C000850070477CB5000010B50446406803686D
:1034D0009B680021984700B110BD2046FFF7DCFF34
:1034E0000028F9D114E0194A0221204606F0BCFA5E
:1034F000F2E7174A0221204605F0F4FE154A0021A2
:10350000204605F0EFFEA06800F53B7003F01AF9C5
:10351000A06800F527704FF0FF324FF0FF33032112
:1035200003F0EAFF03460028DDD1A06800F53B70F8
:103530004FF0FF324FF0FF3303F07AF86068036812
:103540005B69002BD5D09847D3E700BF84B7000054
:10355000D5920000B795000010B5044613460A4600
:103560000146054805F0ECFA23691B7903B910BD43
:10357000204606F088F8FAE79F960000F8B5037831
:1035800073B10B88C21812F8014C134AA25C12F0F6
:10359000080F06D0013B9BB20B80002BF1D10370CA
:1035A000F8BD0024C45400E01C46631C9BB20619FD
:1035B000055D094AAA5C12F0080FF5D1002CEFD086
:1035C0000D460A88121B0132314607F0DAFD2B88BE
:1035D0001C1B2C80E4E700BF1DC500002DE9F8434B
:1035E0000746056800269EE06C1C25B12846FCF7BE
:1035F00013FF82B200E000222146284607F0C1FDF9
:10360000013590E06E1C25B12846FCF705FF82B21B
:1036100000E000223146284607F0B3FD264682E04E
:103620006C1C25B12846FCF7F7FE82B200E00022B0
:103630002146284607F0A5FD002674E06C1C25B144
:103640002846FCF7E9FE82B200E000222146284627
:1036500007F097FD013566E0A3F1300252B242EA6D
:10366000C9025FFA82F908F101085FFA88F8B8F137
:10367000040F06D815F80830A3F13002D2B2072A99
:10368000EAD9B8F1020F67D908F1FF342C444DB1E3
:103690002846FCF7C1FE82B205E04FF000094FF06A
:1036A0000208E4E70022A2EB080202322146284683
:1036B00007F067FD05F8019B35E0A3F16102D2B286
:1036C000052A1AD8573B5BB243EA09135FFA83F91C
:1036D00008F101085FFA88F8B8F1030F19D815F856
:1036E0000830A3F13002D2B2092AE6D8303B5BB2EF
:1036F00043EA09135FFA83F9EAE7A3F14102D2B280
:10370000052A06D8373B5BB243EA09135FFA83F90F
:10371000DEE7B8F1020F26D826B91F4BE35C13F0A1
:10372000080F34D101352C788CB346B9272C3FF4DF
:1037300069AF5C2C3FF458AF222C3FF463AFA64234
:103740003FF46EAF002EE7D05C2CE5D16B789E4243
:103750003FF474AF302BA0D0782BDDD14FF00009AF
:103760004FF00208B8E708F1FF342C4425B1284691
:10377000FCF752FE82B200E00022A2EB0802023205
:103780002146284607F0FDFC05F8019BCBE73D608C
:103790003046BDE8F88300BF1DC5000070B582B09B
:1037A00004460D4601921E460020206003E05A1C8C
:1037B000019200221A70019B197889B10B4A8A5C28
:1037C00012F0080FF3D123685A1C2260019A45F8C1
:1037D00023202368B34203D001A8FFF7FFFEEAE7E6
:1037E0002368002245F8232002B070BD1DC50000EB
:1037F000034670B18068F8B10378B3B110B51446D0
:103800000B464268214618469047206800B1204682
:1038100010BD0B4A0B48121AB1EBD20F03D200EBCA
:10382000C1014868704718467047426801EB810142
:103830008B00D018D35803B170471846704700BFAB
:10384000B8B3000080B30000F8B5064630B1FCF70D
:10385000E3FD85B286B30024274608E00025F9E79A
:103860000137BFB2013292B20EE00134A4B2AC46CD
:103870006B1E9C4220DA2046315D104BCB5C13F06E
:10388000080FF2D0621C92B29542EED9B11816F828
:1038900002E00A4B1EF8033013F0080FE0D1002FAE
:1038A000E3D00130ACEB02020132304407F069FC96
:1038B000ED1BADB20027D8E7F8BD00BF1DC5000065
:1038C000F0B406460020074605E0002B0CDD13E0AF
:1038D0000127013080B210FB03F40C44A4B20CB9F0
:1038E000002B09DB9442F0D0355D044C2C5D14F0C4
:1038F000070FEDD1002FECD0F0BC70471DC50000C4
:1039000021B30B46826892F82F1099421ED000B561
:1039100083B01B218DF800105B218DF8011034213C
:103920008DF8021003F12F018DF803106D218DF831
:10393000041000218DF8051082F82F306A460449E2
:10394000406905F08EFF03B05DF804FB704700BFCF
:10395000A8B7000071B108B5406981EAE172A2EB35
:10396000E172002904DD4123034905F07AFF08BD17
:103970004223F9E7704700BFECB7000071B108B50A
:10398000406981EAE172A2EBE172002904DD432380
:10399000034905F066FF08BD4423F9E7704700BFFF
:1039A000ECB7000010B583689A8E541C9C861344B3
:1039B00083F838108368D3F8583213F0040F00D11D
:1039C00010BD0A4604460749406905F04AFF2046F3
:1039D00005F075FF0028F3D00349606905F041FF49
:1039E000EEE700BFF0B7000004B5000038B50446AC
:1039F00005F065FF70B9A3685D8E186878B1FCF7B3
:103A00000BFD80B22844A3685A8D90FBF2F302FBB1
:103A1000130018B90349606905F023FF38BD002081
:103A2000F0E700BF04B500002DE9F04105468468C9
:103A3000628EA18E04F1200005F07AFEB4F8248095
:103A4000E78CAB685E8E1868D0B1FCF7E5FC80B2FD
:103A50003044AB685A8D90FBF2F302FB130088B13F
:103A6000B84514D0E18CA38CC91A2846FFF772FF21
:103A7000218C638CC91A2846FFF780FFBDE8F081CE
:103A80000020E5E70549686905F0EBFEE8E7218CD1
:103A9000638CC91A2846FFF771FFEFE704B50000F1
:103AA00008B583689A8E5A8683689A8E13440022DA
:103AB00083F83820024A0349406905F0D2FE08BD68
:103AC000DCB70000A8B7000010B504468068428E3D
:103AD000818E203005F02CFEA368198CC1F1010104
:103AE0002046FFF74BFFA368998C01392046FFF76A
:103AF00031FF034A0349606905F0B3FE10BD00BF02
:103B0000DCB70000A8B7000008B582683832024967
:103B1000406905F0A6FE08BDA8B70000836893F8C9
:103B20002E208A422AD000B583B083F82E10F9B136
:103B30001B238DF800305B238DF8013031238DF885
:103B400002303B238DF8033033238DF804302F31BE
:103B50008DF805106D238DF8063000238DF80730A1
:103B60006A460749406905F07CFE03B05DF804FB36
:103B7000044A0349406905F074FEF6E7704700BF48
:103B8000A8B70000E8B70000F8B58268948E04F189
:103B90003703134402F13805528E002A41D0002C1D
:103BA0003FD00024AB4206D31978202903D1013439
:103BB000A4B2013BF6E7AB4206D31978202903D023
:103BC0000134A4B2013BF6E705465E1C611C121BE2
:103BD0001944304607F0D5FAAA68538E1B1B53864A
:103BE000AB685A8E1344002783F83870614209B2DB
:103BF000284605F07AFE0B4C0B4A2146686905F011
:103C000030FE334622463946284605F02DFF074A46
:103C10002146686905F025FE054A2146686905F0D8
:103C200020FEF8BDA8B70000E0B70000DCB7000038
:103C3000E4B70000F8B504460E4617463ABBA26842
:103C4000938E38331344164A0021204605F00CFFAA
:103C5000A3685A8E9A86A3685D8E1868E8B1FCF74F
:103C6000DBFB80B22844A3685A8D90FBF2F302FB81
:103C7000130030B907B106B91FB90A49606905F0E8
:103C8000F0FD714209B2204605F02FFEF8BD064A4C
:103C90000349406905F0E5FDD1E70020E2E700BFF8
:103CA000A8B7000004B50000DCB7000008B58368C1
:103CB0001B68024A032105F0D7FE08BDA8B7000023
:103CC00010B503681C68A3682BB19B6C1BB102463E
:103CD000044920469847A3689B6A0BB12046984741
:103CE00010BD00BF2B9D000010B582B0064802F049
:103CF000F9FA0024009401231A4601460348FFF70D
:103D0000A3FB204602B010BDF4B7000054B300007E
:103D1000002978D02DE9F8430E46174681460BB9A5
:103D2000002404E01146FFF729FEF9E70134325D73
:103D3000354BD35C13F0080FF8D155E0D9F81400D7
:103D400005F0A1FC2A463119484605F037FE08F176
:103D500001042E49D9F8140006F005F83946484602
:103D6000FFF70CFE3119D9F8140005F0FCFF2749C4
:103D7000D9F8140005F0F7FFBDE8F8830025854267
:103D8000F0D204EB050816F808300A2BD6D001351E
:103D9000F5E7DA1994450CD90133E218B55C1A4AF3
:103DA000A95C11F0080FF4D00A2D01D09846F0E775
:103DB0009846D9F8140005F066FC42463119484689
:103DC00005F0FCFD4444325D0F4BD35C13F0080F4B
:103DD00001D00134F7E70D49D9F8140005F0C3FF0D
:103DE00039464846FFF7CAFD3046FCF715FB80B25E
:103DF000001BD9F80830B3F82AC0ACEB070880459F
:103E0000BCD20023C9E770471DC5000004B50000FF
:103E10002DE9F04184B006460C4615461F461D4864
:103E2000FCF7FAFA05EB400264B392B201321FFAD2
:103E300082F82046FCF7F0FA80B22D1AADB22023AA
:103E40008DF80F300094134B134A0021304605F0D3
:103E50000BFE0024AC4208D201220DF10F013046C6
:103E600005F0ACFD0134A4B2F4E70A4B0B4A002183
:103E7000304605F0F9FD47B1002342463946304649
:103E8000FFF746FF04B0BDE8F0810549706905F011
:103E90006AFFF7E770B8000054B800005CB8000093
:103EA00004B50000F0B587B00746866808360021E3
:103EB0000C4606E0FCF7B0FA80B2844238BF0446F4
:103EC00029464D1C01AA3046FFF792FC034620B15B
:103ED00018680028EED10020EFE70CB907B0F0BD5C
:103EE0000A4A0021384605F0BFFD00214D1C01AAF9
:103EF0003046FFF77DFC01460028EFD04B68224694
:103F000009683846FFF784FF2946EFE760B80000EC
:103F100070B582B0044683689868D0B1FCF77CFA2B
:103F200085B20D4E3046FCF777FA15FA80F5ADB242
:103F3000A3689B680096094A0021204605F094FD7D
:103F4000A16800232A46C9682046FFF7E1FE02B0B7
:103F500070BD0025E5E700BF50B8000054B8000070
:103F600038B50446064D074A2946406905F043FF27
:103F7000054A2946606905F03EFF002038BD00BFB4
:103F8000A8B70000E0B80000E4B8000010B504468F
:103F9000064A0749406905F02EFFA36850225A855A
:103FA000A36818221A85002010BD00BFECB80000DD
:103FB000A8B7000008B583691B68034A002105F013
:103FC00054FB002008BD00BF3CBB000000B583B01F
:103FD00002290ED08368D3F8583213F0040F13D09F
:103FE0000A4B0B4A002105F040FB002003B05DF8AE
:103FF00004FB53680193074B00931368064A05F0CE
:1040000034FB6FF01500F1E7044BEAE7F8B8000065
:1040100020B9000008B90000FCB80000F4B80000A6
:1040200010B50446054A002105F01FFB044A002193
:10403000204605F01AFB002010BD00BF3CB900006F
:104040002CBA000070B584B004460025A2680DF1BA
:104050000E0302F59C720121E06805F00BFFBDF82C
:104060000E3063B16E1CA36803F59C7300932B465E
:10407000064A0021204605F0F8FA3546E6E7A3682F
:10408000002083F8380104B070BD00BFF4BA00000E
:104090002DE9F04383B005460F46164600248DF8FF
:1040A00003400C80148080684FF48072214600F534
:1040B0009C7007F080F84849686905F09CFE6869C3
:1040C00005F0E1FAA046B8F57A7F15D36FF07300DA
:1040D0007BE04FF47A7006F0B4FE08F101081FFA95
:1040E00088F8F0E7522B1DD0AA68224482F83831B4
:1040F0000134A4B2092C62D868680368D3F8109020
:1041000001AB01220DF10301C847019B002BE0D058
:104110009DF803301B2BE5D0AA6892F838211B2AA2
:10412000E0D0E9E7AB681C44002384F83831AB6881
:1041300093F839215B2A15D10223AA681A4492F810
:1041400038213B2A14D0318801EB8101480080B22C
:1041500001339BB20244303A3280FF2BEDD96FF02D
:10416000790032E0002283F838216FF004002CE05F
:1041700001339BB2FF2B2BD8AA681A4492F838213E
:1041800072B1398801EB8101480080B201339BB2E2
:104190000244303A3A80FF2BEED96FF0790014E0F8
:1041A0003B88FA2B01D9FA233B803388FA2B01D9BB
:1041B000FA233380AB68002083F8380105E0AB6850
:1041C000002283F838216FF00B0003B0BDE8F083C4
:1041D0006FF00400F9E700BF34B9000030B583B0D8
:1041E0000446144A1449406905F005FE6FF0F901D0
:1041F0002046FFF7AFFBFA212046FFF7BFFB01AADD
:104200000DF106012046FFF743FF80B90546A3687C
:10421000BDF806205A85A368BDF804201A85074A10
:104220000549606905F0E7FD284603B030BD6FF031
:104230008505F4E7D8B80000A8B70000DCB8000096
:1042400010B582B00446012906D1FFF7C7FF034627
:1042500070B9184602B010BD536801930B4B009320
:1042600013680B4A022105F000FA6FF01503F0E71E
:10427000A36850225A85A36818221A85054A04218A
:10428000204605F0F2F96FF00703E2E708B90000F5
:10429000FCB8000000BB00002DE9F04786B0824664
:1042A0000F4616464FF0000949464FF002080DE050
:1042B00033461C4A0421504605F0D6FBB9F1000FE5
:1042C00025D1404606B0BDE8F08729464D1C01AA1D
:1042D0003846FFF78DFA04460028EFD00022216807
:1042E000304604F0BBFB0028EFD1DAF80800334673
:1042F000226800F1360100F59C7005F05BFE8046F7
:104300000128D5D00028D9D109F10109DDE7DAF873
:104310000800324600F1360100F59C7005F01FFAE6
:10432000CFE700BF04C1000010B5044C044B9C4211
:1043300003D254F8043B9847F8E710BD50B300008F
:1043400054B30000064B1B684BB110B55C1E044A09
:1043500052F8233098472346002CF7D110BD704700
:1043600048B3000010B504460A2807D0074B186868
:10437000E1B283685B689847204610BD034B18681C
:1043800083685B680D219847F0E700BF400E00206E
:1043900010B5044C204600F005FD2046FEF708FB52
:1043A00010BD00BF6543000008B5044801F09AFF46
:1043B000034B1860FFF7ECFF002008BDF4B70000C6
:1043C000400E002008B501214FF4807005F085FEF5
:1043D00028B100210A4805F0A6FE437A33B1022134
:1043E0004FF4827005F079FE28B908BD0021044819
:1043F00005F06FFFF3E70121014805F06AFFF4E7DC
:104400000803002020F07F40014BC3F840057047AF
:1044100000100140014BD3F84005704700100140E7
:1044200082B0044B00221A601B680193019B02B00A
:10443000704700BF40110140024B4FF48032C3F877
:104440004423704700100140024B4FF48032C3F800
:104450000823704700100140024B4FF48032C3F82C
:104460000423704700100140014BD3F80405704746
:104470000010014038B5FFF7D3FFFFF7CBFF054D24
:104480002C68214605F05BFF04442C6002F030FFED
:1044900038BD00BF5C0E002038B5FFF7E5FF0446CD
:1044A000FFF7B8FF0546FFF7BBFF2046FFF7AAFF5F
:1044B000FFF7C2FF2146284605F041FF012805D03D
:1044C000054B4FF40032C3F8802138BD0F2006F0B1
:1044D000B8FCFFF7A5FFF3E700E100E038B51348AB
:1044E00001F000FFF0B18268126801219047104D81
:1044F0000024C5F80845FFF793FF0E4B4FF4003238
:10450000C3F88021FFF7A8FF22460121112000F007
:10451000CDF9112000F098F90123074A13602B60B0
:10452000204638BD4FF0FF30FBE700BF74C10000EC
:104530000010014000E100E00810014038B5B0F182
:10454000FF3F1ED0441E114B9C4201DC002C1BDDA2
:104550000E4B9C4200DD0E4CFFF786FF0D4B1D6895
:10456000294605F0ECFEB0F5000F00D300242044EE
:104570000130B0F5000F00D30548284405F015FFC1
:1045800038BD00F50000DDE70024E5E7FEFF7F0011
:10459000FFFF7F005C0E002010B54FF02003EFF30B
:1045A000118483F31188BFF36F8FFFF75DFF044B16
:1045B000196805F0C4FE84F31188BFF36F8F10BD36
:1045C0005C0E002038B54FF02003EFF3118583F324
:1045D0001188BFF36F8FFFF747FF054B1C6821461B
:1045E00005F0ADFE204485F31188BFF36F8F38BD11
:1045F0005C0E002008B5024803F0FCF908BD00BFBE
:1046000088C1000038B108B542683AB1006802F0CC
:1046100099F8002008BD6FF4E04070470048F9E7C2
:10462000EA8FFFFF08B560B142686AB100684FF0D9
:10463000FF324FF0FF3301F0FBFF034630B918465D
:1046400008BD6FF4E043FAE7014BF8E7014BF6E7EA
:10465000EA8FFFFFE98FFFFF10B5044670B1636872
:104660005BB113F0020F0ED0236800221A605A606B
:104670009A60DA601A610023636010BD054B5B68C5
:1046800005489847EBE72168044801F0A9FF00239B
:104690002360F0E7E0000020A0C10000600E0020D1
:1046A00010B5044658B163680BB9236863B120683C
:1046B00006F02AFA636843F00103636010BD104BF3
:1046C0005B6810489847EEE74FF0FF324FF0FF333A
:1046D00021460D4801F04AFF08B923681BB9084B71
:1046E0005B680A489847236800221A605A609A60FB
:1046F000DA601A61636843F002036360D7E700BFC2
:10470000E0000020A0C10000600E0020C8C1000031
:1047100008B5402314220449044806F0D3F904499B
:10472000044803F0CBF908BD7C0E0020600E002089
:10473000F8C1000090C10000114B03221A615A61B8
:1047400010499961104ADA614FF480621A620022BE
:104750009A625A62DA6219660C49596610219966A2
:104760001A67DA665A670A4A1068C3F80700094AE6
:1047700092E803001860998020229A71704700BF68
:104780007C1300200CC200003414002024140020EC
:1047900018C200001CC20000034B43F8302003EB9A
:1047A000C0035960704700BF88010020094A936820
:1047B000D86609490968196708494B6843F080536E
:1047C0004B60002383F31188BFF36F8F9368186FDA
:1047D000704700BFEC1900209CC3000000ED00E012
:1047E0000F498A684FF030001044EFF3098C80E8DD
:1047F000F01F202080F31188BFF36F8F094F4FF017
:1048000000664A6A8A603E60D06E0023D36680F3F9
:10481000118802F1300090E8F01F8CF3098870478E
:10482000EC19002004ED00E01EF0040F0CBFEFF3C4
:104830000880EFF30980816911F8021C0229FFD07A
:1048400001B505F0E0FD01BD43B2002B08DB00F02F
:104850001F005B09012202FA00F0024A42F823001D
:10486000704700BF00E100E043B2002B0DDB00F019
:104870001F005B09012202FA00F02033034A42F8CC
:104880002300BFF34F8FBFF36F8F704700E100E04D
:104890004209054B53F8222000F01F00012303FAC0
:1048A00000F01040704700BF00E100E0013143B26A
:1048B000002B08DB4901C9B203F1604303F56143F2
:1048C00083F80013704700F00F004901C9B2014B93
:1048D0001954704714ED00E008B572B6044B186A1D
:1048E00008B962B608BD00221A6206F0C4F8F8E7FB
:1048F000EC19002010B48C1801664266A4F1200265
:1049000022F00702094921F0010191611360019B26
:104910005360029B9360039BD3604FF08073D3611D
:1049200002650023C36610BC704700BFC78E00003D
:10493000F8B506460C4617461D4600F0C7F93C443C
:1049400024F00704074B9E60284684F30988002161
:1049500063B681F31188BFF36F8F0022002304F048
:10496000B2FA00BFEC190020014910220A6070471A
:1049700010ED00E072B6404080F31188BFF36F8FF6
:10498000BFF34F8F30BF62B6BFF36F8F704700BF6A
:1049900030BFFFF7FDBF00BF08B50E4B0E4A22F037
:1049A0007F029A60BFF34F8FBFF36F8FD3F88820D9
:1049B00022F47002C3F88820EFF3148323F0040379
:1049C00083F3148801F03AFD01F044FD00F03EF954
:1049D00001F082FD00ED00E00000000001B572B6BC
:1049E0000B4A106A00281EBF0021116206F043F82E
:1049F00062B6EFF30580A0F110004FEAC000054950
:104A0000014409C99847BDE801400349084700002F
:104A1000EC19002088010020314C000005F095FDC4
:104A2000202080F3118808484FF40061401880F37B
:104A30000988EFF314800221084380F31488BFF340
:104A40006F8FFFF7A9FF0000C0270020EFF3088059
:104A5000EFF30981724601B500F090F801BD00BF87
:104A600010B514460F4B9A6A9A6A9B6A13F0020FAC
:104A70000BD00C4B5A6B9B6A13F0800F05D021B101
:104A8000084A936A23F080039362064B9A6A9A6AF3
:104A90009A6A9A6A42F0FF029A6205F0C7FC207097
:104AA000002010BD00ED00E010B51446124B9A6ACC
:104AB0009A6A9B6A13F4007F0BD00F4B9A6B9B6A28
:104AC00013F4004F05D021B10B4A936A23F400433D
:104AD0009362094B9A6A9B6A13F4807F01D1064B5B
:104AE0009B6A054A936A43F47F43936205F09EFCF8
:104AF0002070002010BD00BF00ED00E0074B9A6A57
:104B00009A6A9A6A9A6A9A6A9A6A9A6A6FEA0242F0
:104B10006FEA12429A620020704700BF00ED00E089
:104B200038B500230B70124BDC6A14F002041DD15F
:104B30000546D86A10F0804019D00A462846283326
:104B40001B7843B90B4B1B784BB90B4B1B889BB2A3
:104B50004BB920460BE00121FFF782FF07E001215E
:104B6000FFF7A2FF03E0FFF7C9FF00E0002038BD18
:104B700000ED00E029ED00E02AED00E0F0B58BB09B
:104B8000264B5B68C3F30803002585F31188BFF348
:104B90006F8F02F07F45B5F17F4F17D102F00C0502
:104BA000082D16D012F0080F0DD00C4600260DF17E
:104BB00027021946204605F03BFC07469DF82730A2
:104BC00053B10BB0F0BD04460126F0E70026344691
:104BD000EDE700263446EAE701AD20686168A26887
:104BE000E3680FC520696169A269E3690FC54EB129
:104BF000089BC3F308025AB96FEA53236FEA4323B1
:104C0000089305E0089B23F4FF7323F00103089346
:104C100001A9384605F0F3FBD3E700BF00ED00E043
:104C2000024A536943F010035361704700ED00E0FE
:104C3000044B9968586A884203D003494FF0805268
:104C40000A607047EC19002004ED00E0002206E045
:104C500002F00F01094B0B442021197601322F2A53
:104C60000ADC53B2002BF3DB03F1604303F561432D
:104C7000202183F80013F1E7704700BFFCEC00E04F
:104C800038B505464FF02003EFF3118483F3118804
:104C9000BFF36F8F01F09AFF0A4B9B68AB4203D0C2
:104CA000204605F076FF38BD074B5B68C3F3080369
:104CB0002BB1054A536843F080535360F0E7204618
:104CC000FFF774FDEC19002000ED00E000B585B0A1
:104CD000084B0193084B0293084B039301AB0093DD
:104CE000074B084A0121684605F01EFC05B05DF837
:104CF00004FB00BF000000200000000000000B06C5
:104D00000000042000000020064A90600B6823F099
:104D10001F03034343F01003D3608B6843F0010388
:104D20001361704790ED00E010B5034C0123227829
:104D300005F0D4FB207010BD671A0020034B05223C
:104D40005A60BFF34F8FBFF36F8F704790ED00E055
:104D5000BFF35F8F014B00225A60704790ED00E077
:104D600038B50E4B1D68082D15D8FFF7F1FF00244C
:104D7000A5420AD9094B596804EB4402930019442F
:104D80002046FFF7C1FF0134F2E7054B1D70FFF726
:104D9000D5FF002038BD4FF0FF30FBE72CC20000EC
:104DA000671A0020014B1860704700BFA400002064
:104DB000F8B505460F46002404E0094B1B6830781F
:104DC00098470134BC4208DA2E192B5D0A2BF4D126
:104DD000034B1B680D209847EFE73846F8BD00BF2E
:104DE000A400002008B505220249012005F0A3FB1C
:104DF000FEE700BF24C2000038B504464FF0FF3282
:104E00004FF0FF330B4804F04EF80B4B18680B4B78
:104E1000C5182044C3F1005303F58023984202D201
:104E2000054B186001E04FF0FF35024804F036F8FA
:104E3000284638BDF803002034180020C031002077
:104E40004FF02003EFF3118283F31188BFF36F8FCC
:104E500001230649C1F840354FF08041C1F878354B
:104E600082F31188BFF36F8F0020704700E001408C
:104E700030B108B58001034B43F00103984708BDEA
:104E8000704700BFB0B40000F0B583B006460C46D2
:104E90001546154B186848B1A2B283681B683146A5
:104EA00098470346C00F07D103B0F0BD0F4801F08B
:104EB00019FA0D4B1860EFE7A5B9042701E070510E
:104EC0003D44A5420CD2FFF77DFB0190631B032BF1
:104ED000F5D82A4601A9304406F045F92F46EFE7F8
:104EE0000020E1E71846DFE7381800205CC2000028
:104EF00000B583B00C4B186858B183681B68042256
:104F00000DEB02019847002809DB019803B05DF81A
:104F100004FB064801F0E6F9034B1860EDE7FFF7E4
:104F200051FB0190F1E700BF381800205CC200007F
:104F30000023072B42D8F0B482B003F5A272214CB3
:104F400054F8222012F0030F08D00133DBB2072BF4
:104F5000F3D96FF0120002B0F0BC704703F14002C9
:104F6000920094B2174E03F5A27556F8252022F44C
:104F70004F3222F4407246F8252056F8257002027E
:104F800002F47C52090401F440310A433A4346F8E2
:104F9000252004F1804202F5C04200201060126812
:104FA0000192019A56F8252042F0010246F8252088
:104FB000012202FA03F3C6F80433CCE76FF01200C3
:104FC000704700BF0060004010B4134BD3F8044397
:104FD000E4B2002300E00133072B1BD803F5A272D3
:104FE0000D4951F82220C2F305229042F3D124FA50
:104FF00003F212F0010FEED00A4603F5A27051F849
:10500000201021F0010142F82010012101FA03F3E0
:10501000C2F8083310BC70470060004070B50D4600
:10502000C66843681B7A01F01F0444EA4314204613
:10503000FFF7CAFF1F2C03D904F01F00244A02E027
:1050400020464FF0A04200F5E07152F8213023F4E1
:10505000403342F82130F368EB4013F0010F32D0B7
:105060003369EB4013F0010F2FD0B369EB4013F01D
:10507000010F13D0F369EB4013F0010F07D17369EF
:1050800023FA05F515F0010F06D0012100E00321F8
:105090002046FFF74DFF17E00221F9E7736923FA75
:1050A00005F515F0010F0CD1032100F5E07052F861
:1050B000203023F4403343EA014342F820300020FB
:1050C00002E00221F1E7002070BD0020FCE700BFF4
:1050D00000030050F0B443685F68374B1340B3F5EA
:1050E000801F23D012D9B3F5800F27D016D9334CA7
:1050F000A34225D0B3F5A00F5BD1032412F0100F0B
:1051000020D112F0200F47D001251CE0022B0FD038
:10511000062B0FD083B16FF015003BE0284CA34263
:1051200001D10724EAE76FF0150033E00124E5E739
:105130000424E3E70624E1E70024DFE70224DDE7B7
:105140000524DBE70325C2F3402312F4807F0CBF64
:105150000126002612F4007F06D012F4006F1DD045
:1051600001228A40C7F808254268127A01F01F011F
:1051700041EA42111F2919D901F01F01114A43EADE
:10518000460343EA850343EA042301F5E07142F84C
:1051900021300020F0BC70470025D4E712F4806F66
:1051A000E2D001228A40C7F80C25DDE74FF0A0428B
:1051B000E5E76FF01500EDE70600F00002004000A3
:1051C000060010000003005070B5C46845682E7AD0
:1051D00001F01F0545EA4615B2F5A03F2DD0B2F506
:1051E000005F3CD0E56801268E403543E560B2F5AE
:1051F000005F3AD0256901268E4035432561B2F51E
:10520000A03F38D0A26901258D4022EA0502A261A3
:10521000B3F5C02F34D0E26901258D4022EA0502A2
:10522000E261B3F5802F30D0636901228A4023EA1E
:1052300002036361FFF7F2FE70BD1F2D0CD905F06C
:105240001F05144E05F5E07556F8255015F0010FB1
:10525000C5D06FF08500EFE74FF0A046F2E7E568B4
:1052600001268E4025EA0605C0E7256901268E4005
:1052700025EA0605C2E7A26901258D402A43C6E753
:10528000E26901258D402A43CAE7636901228A4009
:105290001343CEE700030050F0B4C6684768336993
:1052A000F2681A40B369F1690B4322EA0302012153
:1052B000002012E04FF0020C1EE04FF0A04503F575
:1052C000E07355F8234024F4403444EA0C4445F894
:1052D000234022EA0102013049009AB11142FAD07A
:1052E0003C7A00F01F0343EA44137469C44014F08D
:1052F000010FDFD14FF0030C1F2BDED903F01F038A
:10530000014DDCE7F0BC704700030050F0B4C36807
:1053100047681A69D9680A409969D869014322EA3D
:1053200001027968D1F810155869484022EA000056
:10533000012100240DE04FF0A04603F5E07356F87C
:10534000235025F4403546F8235022EA0102013467
:10535000490062B10A42FAD03D7A04F01F0343EAE1
:1053600045131F2BE7D903F01F03024EE5E7F0BCFE
:10537000704700BF0003005008B50B4B1B780BB102
:10538000002008BD084B01221A70002205210620CA
:10539000FFF78CFA0620FFF757FA044B4FF0004254
:1053A000C3F80423ECE700BF681A00200060004047
:1053B000F0B585B00023029303934A4B1C680CB9E7
:1053C000002111E0484D2846FFF7A0FF029005F1AB
:1053D0001000FFF79BFF0390424B00221A601B68EE
:1053E0000093009BECE70131072930D801F140031D
:1053F0009B009AB201238B403C48D0F8040303423F
:10540000F1D002F1804303F5C0431B68002BEAD0C2
:1054100001F5A273354850F823301B0AC3F340103E
:1054200003F01F03012505FA03F304AD05EB80002B
:1054300050F8085C1D4340F8085C02F1804303F516
:10544000C04300221A601B680193019BCBE7029EB8
:105450002EB9039E06BB002C3BD105B0F0BD224BFC
:10546000DF68796819B10D4649B10D6807E00D464E
:1054700005E07DB12B4605B12B6829461D46002964
:10548000E7D08A6832403B691A42F2D04B6816482E
:105490009847EEE72B46F0E7134BDF69796819B1BF
:1054A0000D4649B10D6807E00D4605E07DB12B467C
:1054B00005B12B6829461D460029CCD08A683240A8
:1054C0003B691A42F2D04B6809489847EEE72B46F1
:1054D000F0E7054C2046FFF7DFFE04F11000FFF770
:1054E000DBFEBAE77C61004058030020006000400A
:1054F00068030020054B1B6823B9054B1B781BB1C3
:105500000120704701207047002070471C21004097
:10551000691A002082B0054A0023136012680192C4
:10552000019A034A137002B0704700BF1C2100406B
:10553000691A002047F6122399426DD010D9B1F5AF
:10554000E13F79D040D9B1F5E12F7CD057D8B1F502
:10555000613F7AD0404B99424ED14FF0806356E084
:10556000B1F5965F5BD018D8B1F5167F59D008D940
:10557000B1F5966F58D0B1F5166F0BD14FF41D23CE
:1055800045E0B1F5967F02D14FF4A0333FE06FF0D4
:10559000150070476FF015007047B1F5615F46D098
:1055A00007D9B1F5964F45D0B1F5E14F09D12B4B55
:1055B0002DE0B1F5165F01D1294B28E06FF0150001
:1055C00070476FF0150070474DF6C023994235D0F3
:1055D00007D9B1F5614F34D0B1F5963F09D1214BD0
:1055E00015E0B1F5164F01D11F4B10E06FF015001B
:1055F00070476FF0150070476FF015007047B1F5F8
:10560000612F24D0194B994223D14FF08053184A6F
:10561000C2F82435002070474FF40003F7E7154B1C
:10562000F5E74FF41C33F2E74FF49E23EFE74FF416
:105630006C13ECE7104BEAE7104BE8E74FF4650317
:10564000E5E70F4BE3E70F4BE1E70F4BDFE70F4BCE
:10565000DDE76FF01500704790D0030000F0750093
:105660000050270000903A0100509D0040420F007A
:105670000020004000B0130000A04E0000E0D70161
:1056800000F0EB0000705F0700B0AF0300D0BE0E6B
:10569000094B1B6863B182B0074B002018601B6880
:1056A0000193019B054BD3F818350B7002B070477E
:1056B0004FF0FF30704700BF08210040002000403D
:1056C000024BD3F88004C3F88004704700200040E8
:1056D00030B583B04B79012B06D0032B11D06FF07E
:1056E0008503184603B030BD00238DF806308B7952
:1056F000032B3AD1CB7943B1012B10D06FF0850346
:10570000EFE710238DF80630F1E700238DF8043021
:105710000B795BB1022B24D06FF08503E1E743687E
:105720001B782BB301238DF80430F1E700238DF8AB
:1057300005300C4605460968FFF7FCFE0346D0B964
:105740009DF805109DF806009DF8042001430A43CA
:105750000A49C1F86C25EA6894E8030082E803006E
:10576000BFE70E238DF80530E3E76FF08503B8E758
:105770006FF08503B5E76FF08503B2E700200040C6
:10578000F8B50F46164600242546331B002B0BDDCB
:10579000FFF7B0FE40B1FFF7BDFE631C395D034A61
:1057A000C2F81C15DCB2EFE72846F8BD0020004027
:1057B00010B483B000231846D41A002C0FDD094C16
:1057C000246864B1074800240460006801900198CF
:1057D000581C054CD4F81845CC54C3B2EBE703B0C1
:1057E00010BC70470821004000200040024B0422FA
:1057F000C3F80423704700BF00200040024B04227E
:10580000C3F80823704700BF00200040024B18680F
:10581000003018BF0120704708210040024B4FF4B0
:105820000072C3F80423704700200040024B4FF47D
:105830000072C3F8082370470020004010B50446EA
:105840000E4BD3F8043313F0800F08D10B4BD3F871
:10585000043313F0040F08D10023184610BDFFF7DE
:1058600049FE0028F2D00123F7E72046FFF7CEFFDC
:1058700003460028F1D00123EFE700BF00200040DD
:10588000024B1960024B1A60704700BF7C18002061
:105890008018002000B583B0084B1B682BB1074B64
:1058A00000221A601B680193019B054B1B6813B112
:1058B000044A1068984703B05DF804FB24210040B7
:1058C0007C1800208018002008B5054B8022C3F802
:1058D00008230C3301221A6005F095F808BD00BFBB
:1058E0000020004008B505F08DF80D4B01221A602C
:1058F000083B8022C3F804234FF02002EFF311830A
:1059000082F31188BFF36F8F064A12781AB1064AE4
:105910000421C2F8001183F31188BFF36F8F08BD13
:1059200008200040691A002000E100E038B50C466C
:1059300005F081FAC0B96425194B0122BFF35B8FD2
:1059400053E8001F002903D143E800200028F7D1C5
:10595000BFF35B8F0BD02120002101F0D3FA013D72
:1059600015F0FF05E8D11AE00D4B01221A60FFF790
:10597000D1FD0C4B01221A60083BC3F81C454FF4C3
:105980007A74FFF7B7FD20B9012005F037F8013C24
:10599000F7D1054B01221A60014B00221A6038BD75
:1059A00084180020082000400C20004030B583B04F
:1059B0004FF0A0434022C3F808250324C3F818473A
:1059C0000021C3F82017184A0825C2F814550625E7
:1059D000C2F80C552025C3F80855C3F81447C3F87E
:1059E0001C170523C2F808350723C2F81035C16813
:1059F000FFF76EFE044610B1204603B030BD0A4BDF
:105A00000422C3F80025094900220A6009680191AF
:105A1000019901211960064B19700220FEF746FF1B
:105A20000220FEF711FFE7E70020004008210040B8
:105A3000691A002043681A6847F6122399426DD00C
:105A400010D9B1F5E13F78D040D9B1F5E12F7DD043
:105A500058D8B1F5613F7CD0424B99424FD14FF0BD
:105A6000806357E0B1F5965F5BD018D8B1F5167F2B
:105A700059D008D9B1F5966F58D0B1F5166F0BD142
:105A80004FF41D2346E0B1F5967F02D14FF4A033C9
:105A900040E06FF0150070476FF015007047B1F5EA
:105AA000615F46D007D9B1F5964F44D0B1F5E14FCB
:105AB00009D12D4B2EE0B1F5165F01D12B4B29E01A
:105AC0006FF0150070476FF0150070474DF6C0235A
:105AD000994235D007D9B1F5614F34D0B1F5963F31
