:1000000078260020B149000061A30000E14900000A
:10001000E1490000E1490000E14900000000000062
:10002000000000000000000000000000BD470000CC
:10003000E1490000000000007547000089A20000AF
:1000400071490000714900007149000071490000C8
:1000500071490000714900007149000071490000B8
:1000600071490000714900007149000071490000A8
:100070007149000071490000714900007149000098
:100080007149000071490000714900007149000088
:100090007149000071490000714900007149000078
:1000A000714900007149000071490000D52100002C
:1000B0007149000071490000714900007149000058
:1000C0007149000071490000714900007149000048
:1000D0007149000071490000714900007149000038
:1000E0007149000071490000714900007149000028
:1000F0007149000071490000714900007149000018
:1001000053B94AB9002908BF00281CBF4FF0FF317E
:100110004FF0FF3000F074B9ADF1080C6DE904CE7A
:1001200000F006F8DDF804E0DDE9022304B07047D2
:100130002DE9F047089E04468846002B40F0858054
:100140008A42154648D9B2FA82F24AB1C2F1200772
:1001500001FA02F320FA07F7954047EA03089440B2
:100160004FEA154E230CB8FBFEF71FFA85FC0EFB79
:10017000178843EA084307FB0CF1994209D9EB18A9
:1001800007F1FF3080F0E380994240F2E080023FC7
:100190002B445B1AA4B2B3FBFEF00EFB103344EA0F
:1001A000034400FB0CFCA44509D92C1900F1FF33D2
:1001B00080F0CB80A44540F2C88002382C4440EA4D
:1001C0000740A4EB0C0400271EB1D4400023C6E96D
:1001D00000433946BDE8F087002A53D0B2FA82F2D4
:1001E000002A40F0B680491B4FEA154E1FFA85F8E9
:1001F0000127B1FBFEFC230C0EFB1C1143EA01435B
:1002000008FB0CF1994207D9EB180CF1FF3002D230
:10021000994200F2EC808446591AA3B2B1FBFEF079
:100220000EFB101443EA044408FB00F8A04507D96C
:100230002C1900F1FF3302D2A04500F2DC801846F1
:10024000A4EB080440EA0C40BEE78B4208D9002E1C
:1002500078D00027C6E9000138463946BDE8F08766
:10026000B3FA83F77FB98B4202D3824200F2BD809A
:10027000841A61EB030301209846002EA9D0C6E939
:100280000048A6E7FFDEC7F12005BB4022FA05FCC7
:100290004CEA030C01FA07F420FA05F821FA05F3F9
:1002A0004FEA1C4E48EA0404B3FBFEF9210C0EFB96
:1002B00019331FFA8CF841EA034309FB08FA9A45FF
:1002C00002FA07F200FA07F10BD91CEB030309F15C
:1002D000FF3080F088809A4540F28580A9F10209BC
:1002E0006344A3EB0A03A4B2B3FBFEF00EFB10338E
:1002F00044EA034400FB08F8A04508D91CEB0404B9
:1003000000F1FF336BD2A04569D90238644440EA5A
:100310000940A4EB0804A0FB02894C45C6464B46A5
:1003200054D351D0002E69D0B1EB0E0264EB03041C
:1003300004FA05F522FA07F3FC401D43C6E9005410
:10034000002746E73746304643E7184637E7074673
:100350001FE7C2F1200320FA03F7954001FA02F0EB
:1003600021FA03F34FEA154E3843010CB3FBFEF7B5
:100370001FFA85F80EFB173341EA034107FB08F328
:100380008B4204FA02F407D9691807F1FF3C28D21E
:100390008B4226D9023F2944CB1A81B2B3FBFEF02F
:1003A0000EFB103341EA034100FB08F38B4207D9EF
:1003B000691800F1FF3C10D28B420ED90238294453
:1003C000C91A40EA074714E74145ABD2B8EB020E21
:1003D00069EB0C0201381346A4E76046F0E71846C3
:1003E00095E76746D8E781467BE7384645E7ACF1B5
:1003F000020C2B4410E702382C4421E73746E8E68C
:10040000704700BF10F8012B11F8013B012A28BFEB
:100410009A42F7D0D01A7047034613F8012B002AEE
:10042000FBD1181A0138704708B5044BD3F85015A2
:10043000034808F0CCFC002008BD00BF00100040BD
:1004400034B5000070B586B00646072906D0194AB3
:10045000022109F0B1F8002006B070BD15465068C1
:100460000AF016FE144C2070A8680AF011FE6070A5
:10047000E8680AF00DFEE07028690AF009FEA07035
:1004800068690AF005FE2071A8690AF001FEC0B291
:1004900060716378E278A1782579049003950291E0
:1004A000019200932378054A0021304609F084F830
:1004B000D1E700BF94B400000000002070B4000039
:1004C00010B501F089FF0C4601F086FF0246214677
:1004D0002B4808F07CFC2B4B1B780A2B11D0142BDB
:1004E00017D01E2B29D01E2B2FD0282B35D0322BE6
:1004F00037D03C2B39D0462B0ED1224B0A221A7012
:100500000AE0214A1278002AE9D01E4B14221A7000
:1005100002E01C4B1E221A701A4B19781B4808F077
:1005200056FC1B4C206806F03BFD0146194808F0BC
:100530004EFC20680AF0EEFB10BD174A1278002A24
:10054000D1D0104B28221A70E6E7134A1278002AFD
:10055000CBD10C4B0A221A70DEE70A4B32221A70FA
:10056000DAE7084B3C221A70D6E70C4B1B781BB11C
:10057000044B46221A70CFE7024B32221A70CBE7A7
:1005800000B5000084010020601A002008B50000BA
:10059000040600201CB500005A1A00205E1A002034
:1005A000012800D0704738B54FF6FF73994200D04C
:1005B00038BD144801F0C6FB4FF08053D3F8A42097
:1005C000114B1A60114B00241C70AE221A72104B92
:1005D0001C705C601A7204F055FC0E4B18600E48DB
:1005E0000460446084600D4D2A460D4909F0BEFE4A
:1005F0000C488460C46004612A460B4909F0B6FEC9
:10060000D6E700BF30060020D804002014060020E2
:10061000200600202C06002008060020340E0020B2
:1006200029890000900400203989000070B582B04B
:1006300000220023CDE9002342F2676200237C48B8
:1006400006F0CAFE7B4C0521204601F03BFA7A49B0
:10065000204601F041FB0821204601F037FB01F064
:1006600027FE01F02FFE754B10221A70744A5A6053
:10067000744B03221A702524D2E06D480AF00AFC5C
:100680004301C10E1B1A61EB0502910041EA93710F
:100690009E000A46331845EB0202D10041EA53712D
:1006A000D800C30B43EA4143664A1078B3FBF0F32A
:1006B0006CE05F480AF0EEFB4301C10E1B1A61EBD0
:1006C0000502910041EA93719E000A46331845EBFA
:1006D0000202D10041EA5371D800C30B43EA4143FF
:1006E000584A1278B3FBF2F30025590CD80340F2B4
:1006F000E7364FF47A720023801945EB0101FFF7CA
:10070000FFFC02462B4650494A4801F06DFCA842C6
:1007100071DC4E4B00221A7045480AF0BBFB0022E8
:100720004301C10E1B1A154661EB0202910041EA1A
:1007300093719E000A46331845EB0202D10041EA4C
:100740005371D800C30B43EA41433E4A12789A42A0
:1007500062D837480AF09EFB4301C10E1B1A61EBB9
:100760000502910041EA93719E000A46331845EB59
:100770000202D10041EA5371D800C30B43EA41435E
:10078000304A12789A427FF678AF00230025590C40
:10079000D80340F2E7364FF47A720023801945EB14
:1007A0000101FFF7ADFC02462B462749214801F025
:1007B0001BFCA842ADDD01F0ABFD1D480AF06AFB51
:1007C0004301C10E1B1A61EB0502910041EA9371CE
:1007D0009E000A46331845EB0202D10041EA5371EC
:1007E000D800C30B43EA4143164A12789A427FF677
:1007F00060AF002378E7144C63681868596801F00B
:10080000AFFD6368124A9868D96801F027FE0F4B64
:1008100001221A7002B070BD013A0A4B1A700134FD
:10082000272CF7DCE1B2034801F014FA74E700BFAB
:1008300098030020300600208DA9E79C20060020A8
:10084000C8040020581A002014060020601A002056
:10085000C1040000F0B583B000220023CDE90023DD
:1008600049F69A120023824806F0B6FD01F0B4FD65
:10087000804B814AC0184FF0000343EB010101F0A7
:10088000EDFD7E4C0521204601F01CF97C492046F7
:1008900001F022FA0821204601F018FA794A0423CF
:1008A0001370794B5360794A12681A60784B0322AF
:1008B0001A70252456E06E480AF0ECFA0022430133
:1008C000C10E1B1A154661EB0202910041EA9371B9
:1008D0009E000A46331845EB0202D10041EA5371EB
:1008E000D800C30B43EA4143694A1078B3FBF0F3E5
:1008F000092B47D8634B002500950ECB5F4801F0CC
:10090000DBFA5B480AF0C6FA4301C20E1B1A62EB1F
:100910000502910041EA93719E000A46331845EBA7
:100920000202D10041EA5371D800C30B43EA4143AC
:10093000574A12789A427ED900230025590CD803D1
:1009400040F2E7364FF47A720023801945EB01013B
:10095000FFF7D6FB294606F09FFA4D4A1378013B74
:1009600013700134272C0BDCE1B2444801F072F91A
:10097000484B1B78002B9ED0474B1B78002B9AD0FE
:1009800003B0F0BD454B1D6839480AF083FA0022D8
:100990004301C10E1B1A164661EB0202910041EAA7
:1009A00093719F000A463B1846EB0202D10041EAD0
:1009B0005371D800C30B43EA4143354A1278B3FB65
:1009C000F2F3B5FBF3F203FB125383B90025590C84
:1009D000D80340F2E7364FF47A720023801945EBD2
:1009E0000101FFF78DFB294606F056FA82E72B4BF3
:1009F0001E681F480AF04EFA00224301C10E1B1A5E
:100A0000154661EB0202910041EA93719F000A468C
:100A10003B1845EB0202D10041EA5371D800C30BE9
:100A200043EA41431A4A1578B3FBF5F3B6FBF3F5F5
:100A300003FB1563CAE70E480AF02CFA4301C10E06
:100A40001B1A61EB0502910041EA93719E000A4670
:100A5000331845EB0202D10041EA5371D800C30BB1
:100A600043EA41430A4A1278B3FBF2F365E700BF59
:100A70009803002008631200C10400003006002023
:100A8000C75C855720060020DC040020D804002025
:100A9000581A00205B1A00205A1A00202C06002049
:100AA00070B582B000220023CDE9002340F2AF727E
:100AB0000023604806F090FC01F08EFC4FF6E853EE
:100AC0005D4AC0184FF0000343EB010101F0C6FC82
:100AD0005A4C0521204600F0F5FF5949204601F007
:100AE000FBF80821204601F0F1F8564B07221A7056
:100AF000554A5A605549CB6889685B1A9B1054491E
:100B000001FB03F353498B71534B03C91860998060
:100B1000090C997193E8030010609180090C9171A0
:100B20004E4B03221A702524272C7CDCE1B243486B
:100B300001F090F82FE03F480AF0ACF94301C10EF4
:100B40001B1A61EB0502910041EA93719E000A466F
:100B5000331845EB0202D10041EA5371D800C30BB0
:100B600043EA41433D4A1078B3FBF0F30025590CAA
:100B7000D80340F2E7364FF47A720023801945EB30
:100B80000101FFF7BDFA02462B4635492B4801F01B
:100B90002BFAA8423BDC27480AF07CF900224301EB
:100BA000C10E1B1A154661EB0202910041EA9371D6
:100BB0009E000A46331845EB0202D10041EA537108
:100BC000D800C30B43EA4143244A12789A422CD8F6
:100BD000244B1D7017480AF05DF94301C20E1B1A21
:100BE00062EB0502910041EA93719E000A463318B8
:100BF00045EB0202D10041EA5371D800C30B43EA2E
:100C00004143164A12789A4295D90023AEE7144B15
:100C10005A68114B106818609188927999809A717E
:100C2000104B01221A7002B070BD013A0B4B1A70C2
:100C3000013479E798030020C10400003006002049
:100C4000E931C73220060020E8040020900400208B
:100C5000CDCCCCCC00000020E0040020581A0020AD
:100C6000140600205A1A002030B583B00546002231
:100C70000023CDE900234FF476720023724806F07A
:100C8000ABFB01F0A9FB48F6B803704AC0184FF05F
:100C9000000343EB010101F0E1FB6D4C29462046C6
:100CA00000F0D8FF0521204600F00CFF69492046DE
:100CB00001F012F80821204601F008F8664B0422E2
:100CC0001A7066495960664B1A70664A5A60664BDC
:100CD00000221A705C480AF0DDF800244301C20EBD
:100CE0001B1A62EB0402910041EA93719D000A46CF
:100CF0002B1844EB0202D10041EA5371D800C30B18
:100D000053EA41435AD050480AF0C4F84301C20E96
:100D10001B1A62EB0402910041EA93719D000A469E
:100D20002B1844EB0202D00040EA5370D900CB0BE1
:100D300053EA404325D10024590CD80340F2E7354B
:100D40004FF47A720023401944EB0101FFF7D8F900
:100D50000246234642493E4801F046F9A042B9DD29
:100D60003F4B5B681B68414A1268934221D0B3F144
:100D7000FF3FAFD13E4B01221A703E4808F027F8E2
:100D80001CE031480AF086F84301C20E1B1A62EBE0
:100D90000402910041EA93719D000A462B1844EB2E
:100DA0000202D00040EA5370D900CB0B43EA404323
:100DB000C1E70123304A13702B4A137022480AF00E
:100DC00069F800210C4601464301C20E1B1A62EB72
:100DD0000402900040EA93709D0002466B1844EBB9
:100DE0000202D10041EA5371D800C30B53EA4143D8
:100DF00011D10024590CD80340F2E7354FF47A7230
:100E00000023401944EB0101FFF77AF9214606F06F
:100E100043F803B030BD0C480AF03CF801464301EA
:100E2000C20E1B1A62EB0402900040EA93709D0010
:100E300002466B1844EB0202D10041EA5371D8001C
:100E4000C30B43EA4143D4E798030020C1040000E8
:100E5000300600205DA3B5C720060020F005002065
:100E600014060020EC0500205C1A0020D8040020A5
:100E70005E1A002048B400005B1A0020F0B583B071
:100E80000546CD4C637822789B1A0133C3EBC3032C
:100E90001846D917C94FC7E900010026590CD803D5
:100EA00040F2E73C4FF47A72002310EB0C007141E2
:100EB000FFF726F9024600200021CDE90001334664
:100EC000BF4806F089FA01F087FA3E687F684FEA6A
:100ED000471C73014CEAD6629B1B62EB07024FEA88
:100EE000820C4CEA937C4FEA830E62461EEB0603AB
:100EF00047EB0202D60046EA5376DF00C31946EB01
:100F0000010143F69820AF4A18184FF0000343EB55
:100F1000010101F0A3FAAC4E0521304600F0D2FDEC
:100F2000AA49304600F0D8FE0821304600F0CEFE37
:100F30002946304600F08EFEA54B07221A70A549BF
:100F40005960A54B1A70A54A5A60A279A44B1B7828
:100F50009A4203D0A34B1B78002B52D0A24A13789D
:100F60000133DBB21370032B2CD0954809F092FFAC
:100F70000022114602465001D30E801A63EB010392
:100F80009C0044EA907485002346A81841EB0303B3
:100F9000DA0042EA5072C100C80B50EA424315D150
:100FA0000024590CD80340F2E7354FF47A7200233D
:100FB000401944EB0101FFF7A3F8214605F06CFF4F
:100FC00003B0F0BD134600221A70CEE77C4809F04A
:100FD00061FF00210C4601464301C20E1B1A62EB61
:100FE0000402900040EA93709D0002466B1844EBA7
:100FF0000202D00040EA5370D900CB0B43EA4043D1
:10100000CEE74220002105F047FF784B1B78002BEC
:1010100076D16B4809F03EFF00221146024650018E
:10102000D30E801A63EB01039C0044EA90748500A0
:101030002346A81841EB0303DA0042EA5072C100CC
:10104000C80B50EA424340F09B800024590CD8035F
:1010500040F2E7354FF47A720023401944EB010166
:10106000FFF74EF8214605F017FF00220023CDE9D7
:1010700000234FF4A4720023514806F0ADF95A4BF7
:101080001B78022B00F0B8804B4B9A79544B1B789D
:101090009A4200F0B680544A13780133DBB21370E1
:1010A000032B00F0B580464809F0F4FE00221146FB
:1010B00002465001D30E801A63EB01039C0044EA00
:1010C000907485002346A81841EB0303DA0042EA36
:1010D0005072C100C80B50EA424340F09D8000248A
:1010E000590CD80340F2E7354FF47A7200234019C7
:1010F00044EB0101FFF704F8214605F0CDFE5FE760
:101100002F4809F0C7FE00210C4601464301C20EDC
:101110001B1A62EB0402900040EA93709D000246A5
:101120006B1844EB0202D10041EA5371D800C30BA3
:1011300053EA41433FF46DAF2D4B5A681B68D21AF6
:1011400092102C4901FB02F2944215D204EB4401A7
:10115000204A03EB810353F8040F106099889B79B0
:10116000918093711A4B002200920ECB164800F02A
:10117000A3FE0134E4B2DFE71C4B00221A7048E7FB
:101180000F4809F087FE00210C4601464301C20EBC
:101190001B1A62EB0402900040EA93709D00024625
:1011A0006B1844EB0202D00040EA5370D900CB0B1D
:1011B00043EA404349E700BFE004002088040020E0
:1011C00098030020C1040000300600209DFCDA379F
:1011D00020060020FC05002014060020F405002055
:1011E0005D1A00205E1A0020581A00205C1A0020A8
:1011F00008060020ABAAAAAA154A13780133137077
:1012000042E7144B01221A70134807F0E0FD42E751
:10121000134600221A7046E7104809F03BFE0021F1
:101220000C4601464301C20E1B1A62EB04029000F9
:1012300040EA93709D0002466B1844EB0202D00016
:1012400040EA5370D900CB0B43EA404347E700BF65
:101250005D1A00205E1A002008B4000098030020E8
:10126000F0B585B000220023CDE900234FF4804281
:101270000023144806F0B0F801F0AEF8124B134A00
:10128000C0184FF0000343EB010101F0E7F8104BE9
:101290001C685D68A54212D022796388B4F8050005
:1012A000B4F80710667AA77A039702960191009026
:1012B00008490968084807F08AFD0C34EAE705B0D8
:1012C000F0BD00BF98030020A8B40700C1040000CF
:1012D00008060020D80400201CB400002DE9F04FBF
:1012E00083B0164601230093436804681C1BA210B8
:1012F000394C04FB02F4394AA24260D007468846C2
:101300000194002C5ED001AA126814443A689B1A1A
:101310009B10314A02FB03F39C4255D32F4B9C4256
:1013200054D8D7F80090D7F804A0A8EB090B002CEC
:1013300050D02A4B9C424BD804EB4403980009F050
:1013400088FE054615EB0B0306D030687168B2685D
:1013500045F80B0059609A60484607F001FB834648
:10136000404607F0FDFAA0EB0B06834504D0324659
:101370005946284609F0ACFE2E440C36404607F08C
:10138000EFFA8046504607F0EBFAA0EB080A8045DA
:1013900004D052464146304609F09AFE5644B9F10F
:1013A000000F02D0484609F064FE3D607E6004EB09
:1013B0004404A3001D44BD6003B0BDE8F08F08489D
:1013C00009F05CFE6A469FE7044CAAE7034CA8E7D5
:1013D00009F051FE0025B5E7ABAAAAAA5555551547
:1013E00048B500002DE9F0418AB000220023CDE984
:1013F00000234FF420320023C34805F0EDFF00F036
:10140000EBFFC24BC24AC0184FF0000343EB01018F
:1014100001F024F8BF4CC04D2178284600F01AFC9A
:10142000E178284600F04EFBBC49284600F054FC09
:101430006179284600F04AFCA278B94B1A70B94A83
:101440005A60637824781B1B5BB20133DBB2B64A67
:10145000137013B9134601221A70B44B1A685B68F3
:101460009A4201D0B14B5A60B14BD3F8103503F01A
:101470000F030F2B40F0BA80A64B1B79002B00F016
:10148000B580012B0BD0022B0ED0032B11D0042BD7
:1014900040F0AC80A64BA74AC3F86C26A6E0A44B4C
:1014A000A54AC3F86C26A1E0A14BA44AC3F86C2658
:1014B0009CE09F4BA24AC3F86C2697E0924809F043
:1014C000E9FC4301C20E1B1A62EB0502910041EADE
:1014D00093719E000A46331845EB0202D10041EA9F
:1014E0005371D800C30B43EA41438F4A1078B3FBD2
:1014F000F0F39EE0934809F0CDFC4301C20E1B1AA5
:1015000062EB0602910041EA93719F000A463B1884
:1015100046EB0202D10041EA5371D800C30B43EA03
:101520004143143B0026590CD80340F2E7374FF4EF
:101530007A720023C01946EB0101FEF7E1FD08AF06
:10154000024633467449384600F0C6FD97E803006A
:101550000390ADF810100B0C8DF81230734B5A68D5
:1015600022F80A6C5A6822F8070C5B68C0F30F4037
:1015700023F8050C89B2AE2900F0A380BDF8101045
:101580006A4B5A6802F8031C5B6803F8085C6D48F4
:1015900009F080FC00254301C20E1B1A62EB050214
:1015A000910041EA93719E000A46331845EB02020E
:1015B000D00040EA5370D900CB0B53EA404340F0CF
:1015C00087800025590CD80340F2E7364FF47A7231
:1015D0000023801945EB0101FEF792FD294605F035
:1015E0005BFC514A1378013B13700134494B5B7823
:1015F000A342C0F28580444809F04CFC0025430119
:10160000C20E1B1A62EB0502910041EA93719E0023
:101610000A46331845EB0202D10041EA5371D80063
:10162000C30B43EA4143404A12789A427FF646AFE1
:1016300000230026590CD80340F2E7354FF47A72A4
:101640000023401946EB0101FEF75AFD02463D4FCB
:1016500000200021CDE900013346384605F0BCFEEC
:10166000E5B229462C4800F0F5FA0596069607964D
:10167000DFF8B88005A9404607F073F9082000F0AC
:10168000CDFBD8F8043003F8020C384609F002FC10
:101690004201C10E121A61EB06018B0043EA9273FC
:1016A000970019463A1846EB0101CB0043EA527302
:1016B000D000C20B42EA4342142A7FF41BAF00233E
:1016C00030E71A4B5B6813F8023CADF8103055E771
:1016D0001C4809F0DFFB4301C20E1B1A62EB050236
:1016E000910041EA93719E000A46331845EB0202CD
:1016F000D00040EA5370D900CB0B43EA404360E787
:101700000AB0BDE8F08100BF98030020C85E4C001D
:10171000C1040000E00400203006002052A692F42C
:1017200020060020F0040020581A0020080600209F
:1017300000100040032D2D02002D2D02012D2D0241
:10174000022D2D02C803002038B5814807F03FFB69
:10175000FA21804808F0A4FE7F4807F038FB00F02B
:101760006FFD00F0EFFD7D4807F031FB7C4B196801
:101770007C4807F02CFB05F0BBFB7B4B186006E0B8
:10178000FEF754FF42F65200002105F085FB774B2F
:101790001B780A3B3C2BFAD801A252F823F000BF79
:1017A000811700008F1700008F1700008F170000AF
:1017B0008F1700008F1700008F1700008F17000091
:1017C0008F1700008F170000951800008F1700007A
:1017D0008F1700008F1700008F1700008F17000071
:1017E0008F1700008F1700008F1700008F17000061
:1017F000A51800008F1700008F1700008F1700003A
:101800008F1700008F1700008F1700008F17000040
:101810008F1700008F170000B51800008F17000009
:101820008F1700008F1700008F1700008F17000020
:101830008F1700008F1700008F1700008F17000010
:10184000DD1800008F1700008F1700008F170000B1
:101850008F1700008F1700008F1700008F170000F0
:101860008F1700008F170000F51800008F17000079
:101870008F1700008F1700008F1700008F170000D0
:101880008F1700008F1700008F1700008F170000C0
:101890003F190000FEF7DEFF49F68630002105F013
:1018A000FBFA74E7FFF7FCF840F69A10002105F008
:1018B000F3FA6CE7FFF796FD00232D4A13702D4ACB
:1018C00013702D4A13702D4A13702D4A13702D4A30
:1018D00013702D48002105F0DFFA58E7284B1978DE
:1018E000264B1878FFF7C0F940F2C350002105F0ED
:1018F000D3FA4CE7224B1978204B1878FFF7BEFA41
:10190000224BD3E900236FF00E004FF0FF318B42E2
:1019100008BF824211D00F320024510CD00340F294
:10192000E7354FF47A720023401944EB0101FEF7CA
:10193000E7FB214605F0B0FA29E70022ECE7FFF7C4
:101940008FFC44F2EC10002105F0A6FA1FE700BF5F
:1019500064B50000F00400207CB5000098B50000DC
:10196000D8040020B8B5000004060020840100203F
:101970005E1A00205B1A0020591A0020581A002015
:101980005D1A00205F1A0020EC810200880400200C
:1019900000B589B0444B1B68FBB9444B1B68002B56
:1019A0005AD0434BD3F8103503F00F030F2B21D03F
:1019B0008379002B45D00388013303803C4BD3F857
:1019C000483503F07F03828813448380374B00221D
:1019D0001A601B680393039B09E0364B01221A60CF
:1019E00003F5827300221A601B680193019B09B002
:1019F0005DF804FB2E4BD3F804251179D3F8243578
:101A0000DBB2994216D1D3782949D1F81C15B3EB32
:101A1000116F0FD19178264BD3F81C35C3F30743D0
:101A2000994207D15278224BD3F81C35C3F30723D0
:101A30009A42BDD01D4B00221A601B680293029B84
:101A4000D5E71A4B00221A601B680493049B836835
:101A5000186809F05FF9CAE7174B1B6863B183790F
:101A6000002BC4D0438801334380134B00221A60FB
:101A70001B680593059BBAE7104B1B681BB9104BFD
:101A80001B68002BB3D00D4B00221A601B68079314
:101A9000079B0B4B1A601B680693069B83681868AC
:101AA00009F038F9A3E700BF1C11004030110040D5
:101AB0000010004018100040341100400C1100408C
:101AC0006C11004010B584B00C465F4BC3F8101584
:101AD00040F20122C3F8502640F20312C3F8342525
:101AE00040F25B62C3F83825584AC3F83C250D2202
:101AF0000021684609F006FB00238DF80530082216
:101B00008DF800208DF801308DF80230FF228DF81D
:101B100008208DF8093003228DF80A208DF80B304B
:101B200001228DF80C208DF80630043C0B2C0AD8CD
:101B3000DFE804F0064D4D0909090909090909659D
:101B400001238DF805309DF800309DF8012043EA0F
:101B500002239DF8022043EA02439DF80320002A55
:101B60006AD04FF4801213439DF8042043EA825355
:101B70009DF8052043EA02639DF80620002A5DD007
:101B80004FF0806213439DF8072043EA42732E4AC8
:101B9000C2F814359DF808309DF8092043EA022365
:101BA0009DF80A2043EA02439DF80B20002A47D003
:101BB0004FF0807213439DF80C20002A42D04FF062
:101BC00000721343204AC2F8183504B010BD032335
:101BD0008DF8053002228DF804208DF807307F2320
:101BE0008DF80830184B40F20122C3F8502640F21D
:101BF0000312C3F834250022C3F83825A3E70223D3
:101C00008DF8053000238DF80A307F238DF80830D9
:101C100001238DF806300C4B40F20122C3F8502608
:101C200040F20222C3F83425094AC3F8382545F2A8
:101C30005552C3F83C2586E7002294E70022A1E72D
:101C40000022B7E70022BCE70010004055555500C0
:101C500021100100272910D81B4BD3F8103503F0B1
:101C60000F030F2B09D050F821309AB2B2F5166F3E
:101C700009D39BB2A3F516630AE0A1F10B03DBB213
:101C80000F2B0DD970479BB2A3F6381343F4807322
:101C90000D4AC2F8083501F07F01C2F854157047AB
:101CA0001D3150F821309AB2B2F5166F07D2A2F664
:101CB000381343F48073044AC2F8083570479BB266
:101CC000A3F51663F7E700BF00100040014BC3F80F
:101CD0000C15704700100040C0F8FC13064B0022A2
:101CE000C3F82C250122C3F830250A0EC3F8242599
:101CF0000902C3F81C1570470010004082B00E4B5B
:101D00000022C3F800224FF0FF31C3F8081303F597
:101D100088731A601B680093009B084B01221A60AD
:101D2000074B1B68002BFBD0054B00221A601B6879
:101D30000193019B02B0704700100040101000405A
:101D400010110040F0B583B00646304CA022214669
:101D500009F0B0F906F1A005A0340FCC0FC50FCCE7
:101D60000FC50FCC0FC594E80F0085E80F0006F1F2
:101D7000E8070024A6F8E840A6F8EA40AE23A6F853
:101D8000EC3086F8EE40FF22214606F1F50009F01E
:101D9000B9F97A22214606F2F91009F0B3F97F2247
:101DA000214606F2792009F0ADF94FF48072214600
:101DB00006F53E7009F0A6F906F0EFFD0125144B7B
:101DC000C3F8FC5FFFF79AFF03213046FFF77AFE66
:101DD00010493046FFF780FF0B213046FFF73AFFEE
:101DE00021463046FFF772FF06F1E003C6F8F030F7
:101DF00000943B46084A0721284608F099FA2846ED
:101E000002F0ECFC304603B0F0BD00BF10B30000A0
:101E100000100040D6BE898E9119000030B583B005
:101E2000044600B901241E4AD2F8003243F00103EF
:101E3000C2F800321B4B01221A60194BD3F85035FF
:101E4000DBB2032BF9D10122002510E0164B012152
:101E50001960183BD3F8483503F07F031D44134B3A
:101E6000002119601B680193019B0132D2B2944298
:101E700007D30F4B012119600C4B1B68002BFBD0C3
:101E8000E4E70C4B01221A60054BD3F8503513F0F0
:101E9000FF0FF9D1FFF732FF95FBF4F003B030BD2F
:101EA0000010004004100040181000401C110040B9
:101EB0001410004010100040F0B589B0044601A88D
:101EC00080E80E009DF83870FFF718FF404BD3F8FC
:101ED000103503F00F030F2B4ED09DF8046084F8EB
:101EE000F46004F1F505FF220021284609F00AF903
:101EF00032460299284609F0DDF804F1F403C4F8EB
:101F0000743294F8F430013384F87832D4F87432AF
:101F10002F4DC5F804352F4B00261E601B68079314
:101F2000079B2D4B1E601B680693069B2B4BC5F829
:101F3000043304F0DDFFC4F8E000294B1E601B6889
:101F40000593059BD5F8103503F00F030F2B30D008
:101F50001F4AD2F8003243F4801343F00303C2F85F
:101F60000032012313604FF40040002104F094FF7D
:101F7000FFF7C4FE09B0F0BD9DF80450AB1D84F816
:101F8000F431D4F8FC33C4F8F53104F2F9167A22AE
:101F90000021304609F0B6F82A460299304609F089
:101FA00089F804F5FA73C4F87432053584F8785268
:101FB000ACE7002FCCD0D5F8003243F4872343F0B0
:101FC0000203C5F80032074B01221A60CBE700BFBD
:101FD000001000400C1100406C1100400800000887
:101FE00010110040041000402DE9F04182B0044679
:101FF000884616461F46FFF781FE334BD3F810354F
:1020000003F00F030F2B4BD004F53E754FF4807295
:102010000021284609F076F8C4F8F853D4F8F833CC
:10202000294DC5F80435294B00221A601B6801931D
:10203000019B4FF48053C5F8043304F059FFC4F8F2
:10204000E000D5F8003243F4001343F03103C5F843
:1020500000321F4B01221A603046394604F01CFF43
:10206000051E14DD184AD2F8483503F07F0388F8BE
:102070000830D2F8103503F00F030F2B1AD0D4F824
:10208000F83313F8012B88F80020C8F80430114BFE
:1020900001221A60FFF732FE284602B0BDE8F08147
:1020A00004F279257F220021284609F02BF8C4F894
:1020B000F853B3E7D4F8F83313F8052B063A88F849
:1020C0000020C8F80430E2E7001000403011004062
:1020D00004100040181000402DE9704384B00546FC
:1020E0000C4690469946FFF709FE04F53E73334EC1
:1020F000C6F80435324B01221A60324A00231360BD
:1021000012680392039A304A136012680292029A8C
:102110002E4A136013680193019B4FF44253C6F893
:10212000043304F0E5FEC4F8E000D6F8103503F0FF
:102130000F03052B0FD0D6F8103503F00F03062B35
:1021400009D01E4AD2F8003243F4001343F03103A1
:10215000C2F8003208E0194AD2F8003243F4801382
:1021600043F01B03C2F800320026A4F8EA60A4F88A
:10217000E860AE23A4F8EC30012384F8EE30144A72
:1021800013604046494604F087FE84F8EE60FFF78E
:10219000B5FDB4F8E82032B1B4F8EC30AE3B93FBB7
:1021A000F2F3A4F8EC30064B01221A60E83403CCB9
:1021B00028606960284604B0BDE8708300100040C4
:1021C0001810004030110040341100401C11004034
:1021D00004100040684620F007018D4601B5144BFD
:1021E0001B68D3F85421012A0BD0D3F85021012ABF
:1021F0000FD002F03BFB02F0E5FCBDE80140854654
:1022000070470022C3F854210A490A6801320A6063
:10221000EBE70022C3F85021074B1B68002BE8D0E6
:10222000044A1168054A12689142E2D19847E0E7F2
:1022300008000020300A0020380A0020340A00205C
:1022400010B5194C2368D3F8082542F00302C3F8EF
:102250000825D3F8102522F00F0242F00402C3F83B
:102260001025D3F8042522F00302C3F80425002228
:1022700006211B2002F0E4FA1B2002F0AFFA2368CB
:102280000122DA600022C3F84425C3F848254FF044
:10229000FF31C3F85415D3F8041341F40011C3F807
:1022A0000413024B1A6010BD08000020300A002001
:1022B000034B1B680022C3F84425C3F84825704728
:1022C000080000200E4B0F4AC3F8A0250E4A1268E2
:1022D00002F14401C3F8A415D3F8041541F4802198
:1022E000C3F804150949C3F8A8154832C3F8AC254A
:1022F000D3F8042542F40022C3F80425704700BF38
:1023000000F001400C110040080000203011004096
:102310000B4B0022C3F8A025C3F8A425D3F804155D
:1023200021F48021C3F80415C3F8A825C3F8AC250F
:10233000D3F8042522F40022C3F80425704700BF17
:1023400000F00140044B1B680122DA601A60034B65
:1023500000221A60704700BF08000020300A0020E9
:102360002DE9700883468C46164C2468D4F84865DD
:10237000154D2D68B6F1230245F1FF33134CC4E926
:102380000023134CC4E900BC994208BF904208D214
:10239000101A63EB01020F4B18605A60BDE8700819
:1023A00070478B4208BF824206D2801A61EB03025B
:1023B000084B18605A60F1E7064B00200021C3E982
:1023C0000001EBE708000020300A0020B8040020DC
:1023D000B0040020A80400201B4BD3E900011B4BD4
:1023E000D3E900238B4208BF824213D3994208BF2E
:1023F00090421FD2164B1B6801221A64D3F8403555
:102400001846144B1968144A13685268C01842EBF6
:10241000010170470E4B1B6801221A64D3F8403546
:1024200018460C4B19680C4A13685268C01A61EBC5
:1024300002017047064B1B6801221A64D3F840352D
:102440001846044B19687047B8040020B0040020F7
:1024500008000020300A0020A8040020F0B41C4B23
:10246000D3E900671B4BD3E90045BD4208BFB44226
:1024700016D2194C236864682144184C216018490D
:1024800009681844C1F85005154B1968D1F8043390
:1024900043F48013C1F80433124B1A60F0BC704748
:1024A000AF4208BFA6420BD20B4C23686468091BDD
:1024B0000A4C21600A490968C01AC1F85005E3E7CF
:1024C000064B1960064B1B68C3F85005DCE700BFDC
:1024D000B8040020B0040020A8040020340A002022
:1024E00008000020380A00202DE9F04105460028A8
:1024F00000F081800378212B04D05E2B02D04FF0B6
:10250000000E02E001354FF0010E4FF001084FF0D0
:10251000000C57E012F0010F4BD1A81C6C78234639
:102520002FB1384D655D05F00305012D01D0DBB2FB
:102530003FE004F12003FAE745782C462FB1314EF5
:10254000AE5D06F00306012E11D014F0FF0434D066
:102550005D2C32D0851C5C2C0CD02846002C4ED033
:102560008B422CDC8C422ADB4FF0010C27E005F17A
:102570002004EAE712F0010F0FD1C51C8078044651
:102580002FB1204E865D06F00306012E02D0E4B284
:102590002846E3E700F12004F9E72846DEE74FF09C
:1025A000010C0CE0DBB25D2B1CD02F2B21D05C2B5F
:1025B000B0D013B304782D2CBED08B42EFD04FF0A7
:1025C00000080546284610F8014B234612F008077C
:1025D000E8D00C4EA65D06F00306012EE2D104F110
:1025E0002003DFE7B8F1000FDFD1F44503D100206D
:1025F00001E04FF0FF30BDE8F0810020FBE7002054
:10260000F9E700BF29C400002DE9F84F002800F0C9
:1026100022818A4690460546002900F01E8103F17A
:10262000FF3B002B00F01B810F46E4E002F120038A
:10263000EFE083B12A2B40F0CF8032781346B9F116
:10264000000F05D08D49515C01F0030101292ED006
:10265000DBB235462FE018F0100F02D03B782F2B5D
:1026600003D03C78003418BF01242046BDE8F88F21
:102670003B78002B00F0F5802F2B04D02E2B07D0B9
:1026800001373546B7E018F0020FF7D00124ECE728
:1026900018F0040FF4D0574500F0E58018F0020F51
:1026A000EED017F8013C2F2BEAD10124DDE702F12F
:1026B0002003CDE7DBB22A2B0ED115F8012F1346EC
:1026C000B9F1000FF6D06D49515C01F00301012909
:1026D000F0D102F12003EDE73A782E2A0ED0E3B1D3
:1026E0002F2B3ED118F0020F3BD02F21384608F097
:1026F0003BFD074600287ED10124B6E718F0040F01
:10270000EDD0574500F0B18018F0020FE7D017F870
:10271000012C2F2AE3D10124A7E718F00204A4D04A
:1027200018F0100401D000249FE72F21384608F04C
:102730001BFD002899D0012497E718F0020F0FD055
:1027400093E713F0FF061AD05B4628F004023946DF
:102750002846FFF759FF0446012886D12F2EECD0DA
:1027600001373A781346B9F1000FEAD04349515C7A
:1027700001F003010129E4D102F12003E1E7012482
:1027800073E73C78002C72D02F2C15D02146B9F17C
:10279000000F05D0394BE35C03F00303012B10D08D
:1027A00042463046FFF7A0FE0546002861D0B0F152
:1027B000FF3F09D001371EE018F0020FE6D00124D8
:1027C00053E704F12001EBE75B2C54D13546F1E7E8
:1027D00013F0FF0300D02E4617F8012B1146B9F174
:1027E000000F05D02548105C00F0030001282DD013
:1027F0008B422ED135462E4616F8012B134618F083
:10280000080906D01D49515C01F0030101293FF47C
:102810000DAFDBB21C463F2B3FF42AAF7FF709AF69
:102820005B2BAED05C2BD7D118F0010FD4D1023581
:1028300032781346B9F1000FCAD01049515C01F04B
:1028400003010129C4D102F12003C1E702F12001F3
:10285000CEE7012409E7012407E7012405E7032463
:1028600003E7012401E70124FFE60124FDE601243A
:10287000FBE60124F9E60124F7E600BF29C40000C5
:1028800008B50B6801330B60014B1B68984708BD06
:102890000C0000202DE9F04F83B0824601911546CF
:1028A0009B46DDF83090B9F1000F2CDD4FF00108A8
:1028B0000A260027214C10E0B5FBF4F001993030D6
:1028C000D04708F101080127013EB5FBF4F304FBF2
:1028D00013551B4BA3FB0434E408092C16D9002F15
:1028E000EAD1AC42E8D94E45EEDCBBF1020FEBD8A1
:1028F000BBF1010F05D020200199D04708F1010854
:10290000E2E73020F8E74FF00109CFE7019905F140
:102910003000D047BBF1030F02D003B0BDE8F08F09
:10292000A9EB080803E001992020D047A04608F150
:10293000FF34B8F1000FF6DCEFE700BF00CA9A3BA6
:10294000CDCCCCCC014B1860704700BF0C000020F0
:1029500000B583B0002301930B46024601A903484A
:1029600006F095F803B05DF804FB00BF8128000075
:10297000F8B505460F464FF441720021806808F013
:10298000C1FBAB682A681A60284606F079FCA86883
:1029900000F53B7008F05FF8002616E0A8683401E7
:1029A00004F516742044043008F040FBA8680319AD
:1029B00006EB86018A0002F52672104404330022D9
:1029C0000121043008F00AFB0136032EE6DDAB6975
:1029D00000221A60AB68B3F8581241F01002A3F855
:1029E0005822AB68B3F8581241F00402A3F85822F9
:1029F000AB68B3F8581241F02002A3F85822AB6834
:102A000001221A71AB6850225A85AB6818221A85C8
:102A1000AB681868A0B1FDF7FFFC80B2AB6883F823
:102A20002C00AB68B3F8581241F00202A3F8582208
:102A3000686803681C682B46024A3946A047F8BDFF
:102A40000020EBE76792000009B10020704710B545
:102A5000044683689B68054A022106F0ACFF2046C5
:102A600006F03FFC6FF0150010BD00BF3CB6000043
:102A7000F8B504460D4616468268516959B1117E73
:102A800061B3537EFF2B20D0A94221D80B44AB4227
:102A900049D200211DE08BB15968002945D0D0688A
:102AA000814206D002F108051E460FCE0FC53368DD
:102AB0002B60204606F015FC012732E01C4A02215B
:102AC00006F079FF6FF007072BE04FF6FF73DBE7A7
:102AD00000212046FFF7B8FF074610BBA06800F5AD
:102AE0003B7003F0F9FDA368B3F8581241F080027F
:102AF000A3F85822A3685B693246294620469847C6
:102B00000746A368B3F858226FF3C712A3F85822F8
:102B1000A06800F53B704FF0FF324FF0FF3303F039
:102B200051FD3846F8BD0121D3E76FF00707F8E7FC
:102B300058B6000089B1D2680AB90846704710B586
:102B4000044606F0C4FE204600F01AFF044A0221A3
:102B5000204606F030FF002010BD0120704700BF66
:102B6000C0B600002DE9F0479EB007468668D6F84B
:102B70001C9000230693059304934FF0FF330393B7
:102B8000383606F0A4FE384606F040FE68B3B96851
:102B900000238B60CB600B614B618B61384606F084
:102BA000FBFDB9684A8E3831384606F095FB384649
:102BB00007F0F3F9B9F1000F1CD0D9F800300C93ED
:102BC0000D96B96803AB019305AB009306AB07AA5A
:102BD0000831484606F0BCFA069B013306930DAC5B
:102BE0004FF00008C246454650E05E49786906F05D
:102BF0004CFBCCE7002308930CACF1E700285AD03B
:102C00000346594A0221384606F0D5FE6FF0070008
:102C100087E056492068FDF7F5FB28B15449206844
:102C2000FDF7F0FB002849D1089B5BB1BC68083474
:102C300007AD0FCD0FC42B682360384606F051FB5B
:102C400001206EE04B4A0221384606F0B4FE6FF0D8
:102C5000070066E022682946384607F0C3F90228D3
:102C600052D003282DD0069B013306934FF0010A62
:102C70000CE019AA2168484606F045FD054623E008
:102C80004FF0010839E0069B01330693049B012BAA
:102C90003AD0069B0C2B37D8039B002B34D0022351
:102CA0003246214604A800F043FD6668049A002AD3
:102CB00052D0012AA2D0069B002BAAD1069B002B42
:102CC000C8D1B8F1000FD4D00434039B013B039367
:102CD000002DD5D02A4651463846FFF72BFF002855
:102CE0003DD0B96803AB019305AB009306AB07AACF
:102CF0000831284606F02CFAA946039B002BC2D1C6
:102D0000049B022BC2D1BEE7BAF1000F0CD105998A
:102D100007AB0CAA02EB81020698411A3846FFF76E
:102D2000A7FE1EB0BDE8F087384607F06EF9BA6816
:102D3000D169003118BF01210C2338320CA800EBF7
:102D4000810106A800F0F4FCBB68DB69002BDED033
:102D5000069B01330693DAE76FF00700E1E76FF0B7
:102D60000700DEE774B6000078B600008CB60000FD
:102D700090B6000058B600002DE9F04182B0856899
:102D80006C8EFF2C46D01E46174688460446AA8EF7
:102D900005F1380105F59C7008F08CF9A3689A8E4E
:102DA0001344002283F83821A2680C2302F59C7298
:102DB0003968304600F0BCFCA268908E013810449F
:102DC00090F83810154BCB5C03F008033568ADB1B3
:102DD0000BB9012D12D003B9013DD0690023019335
:102DE000099B0093089B3A68294606F0A3FCC8F8A3
:102DF000000060B1012002B0BDE8F0810023089A14
:102E00001360A368DB69C8F800300120F3E71DB93F
:102E10000120F0E70020EEE70020ECE729C40000E5
:102E2000F8B504460E461F4692B31046FDF7F4FA75
:102E300085B2A26808323946304600F0A3FC064647
:102E4000006838B3FDF7E8FA80B2A84224D1A3683D
:102E50009A8E1A4492F83810184A8A5C12F0080FB9
:102E600027D1D3F8582212F0010F1DD0B3F8582201
:102E70006FF30002A3F858222021204606F0DFFD60
:102E8000A368B3F8581241F00102A3F85822F8BD24
:102E90000025CEE70020D8E73168421B92B22944D2
:102EA000204606F0E6FDD2E72021204606F0C7FDC9
:102EB000EDE70121204606F0BFFCE8E729C4000049
:102EC000002935D02DE9F04182B00E461446054662
:102ED000DFF87C804046FDF79FFA14FA80F4A4B234
:102EE000AB685F8D4046FDF797FA83B2FB1A93FB00
:102EF000F4F39FB23046FDF78FFA80B2241AA4B2E1
:102F0000AB681A8E511C1986B2FBF7F307FB13232B
:102F10009BB28BB9009643460B4A0721284606F020
:102F20004AFD2146284600F0F3FC02B0BDE8F081DE
:102F3000836800221A8670473346044A07212846D0
:102F400006F039FDEDE700BFB4B60000BCB60000E6
:102F5000B0B600002DE9F84F074689461D460A9E87
:102F6000BDF82CA0904652B11046FDF755FA1FFA55
:102F700080FB524600213846FFF7A2FF10E04FF0D9
:102F8000000BF6E7A3681BB1002319E0002317E04C
:102F9000012315E0524621683846FFF791FF013EB4
:102FA000E6B1BA6808322946484600F0EBFB044611
:102FB000013500680028E9D0E368002BE2D0002347
:102FC000002BEDD1B8F1000FE4D00028E2D05A4632
:102FD000414608F0DEF80028DCD0E1E704497869D2
:102FE00006F053F9384606F072FDBDE8F88F00BFD1
:102FF00074B6000030B583B004460D468368D3F83C
:10300000582212F0400F30D1E368DB68002B36D035
:10301000A2680DF1060338322946E06806F0D1FEB9
:1030200068B9A06800F59C71383008F0AAF8A0686B
:1030300038303AD0FDF7F0F980B2ADF806002046FE
:1030400006F03DFC1A4A1B49606906F01EF920464D
:1030500000F024FDA268BDF806309386A26853866E
:10306000204600F08DFC03B030BDB3F858226FF35A
:103070008612A3F85822C06806F0A0FEC4E7002D0F
:10308000F1D0A06838300BD0FDF7C6F980B238B166
:10309000A06800F1380100F59C7008F072F8B7E7FD
:1030A000A368002283F83821B2E70020C5E700BFFB
:1030B0002CB60000BCB6000038B50446013916290C
:1030C0000FD8DFE801F00C0F12292C2F0E0E0E0E78
:1030D00032350E440E480E0E0E0E4C0E5E0006F0FB
:1030E000EEFB38BD06F0FCFBFBE706F0F0FB2046EC
:1030F00006F08CFB58B1A368B3F8581241F04002B7
:10310000A3F858220221204606F0CDF8E9E722492B
:10311000606906F0BAF8EEE706F0AFFCE1E706F00A
:10312000D6FBDEE706F0E6FBDBE700F083FCD8E742
:103130001A4D1B4A2946406906F0A7F8194A294644
:10314000606906F0A2F8204606F0C1FCC9E700213C
:10315000FFF750FFC5E70121FFF74CFFC1E706F07D
:10316000AEFB204605F0D9FFA368B3F8581241F032
:103170004002A3F858220C4A0849606906F085F815
:10318000AFE700F0CBFCA368B3F8581241F040025F
:10319000A3F85822A5E700BF74B60000BCB6000033
:1031A00030B6000034B600002CB6000030B583B055
:1031B000044600230193E8E0204605F0F0FFF8B94B
:1031C0009DF80310092948D02DD91B2941D07F290A
:1031D00058D1A368D3F8582212F0040F00F0D5801C
:1031E000B3F8581241F04002A3F85822A368D3F86C
:1031F000583213F0200F41D0204606F058FCC4E0AE
:10320000A3685B8E5BB9204606F05AF87149606985
:1032100006F03BF80221204606F045F8B5E02046CE
:10322000FFF7A0FCF6E7002900F0AF80082929D1BC
:10323000A368D3F8582212F0040F00F0A680B3F868
:10324000581241F04002A3F85822204606F02FFC05
:103250009BE0A36801225A7197E0A368D3F8582233
:1032600012F0040F00F09180B3F8581241F04002C0
:10327000A3F85822204606F0EDF886E0204606F036
:10328000FCFB82E0544BCB5C13F0970F09D1A36891
:10329000D3F8583213F0040F77D02046FFF70CFF15
:1032A00073E0A368B3F8580240F04002A3F8582234
:1032B000204606F0C4FB68E05B2908D0D2F85832FB
:1032C00013F0040F06D1A36800225A715DE00223B7
:1032D00053715AE0204606F006F9F4E700235371D3
:1032E000A368D3F8582212F0040F4ED031391B29AD
:1032F0004BD8DFE801F0262C3C204A4A4A4A4A4A89
:103300004A4A4A4A4A4A0E13181C4A224A284A4A3A
:103310004A2E01212046FFF76DFE36E000212046AF
:10332000FFF768FE31E0204606F0E4FA2DE0204683
:1033300006F0D6FA29E003225A71204606F0C7FAB1
:1033400023E003225A71204606F0B9FA1DE0032259
:103350005A71A268D2F8583203F0010383F00103D6
:10336000B2F8581263F30001A2F858120DE00322DC
:103370005A71A368D3F8583213F0040F05D02046D1
:1033800006F07BFB01E000235371606803681D6950
:1033900001AB01220DF10301A847019BBBB19DF8D0
:1033A000031011F0800FF0D1A2685379032B0BD8D2
:1033B00001A050F823F000BFB9310000B93200007D
:1033C000DD3200008733000000235371DDE703B0D6
:1033D00030BD00BF74B6000029C4000070B588B0CD
:1033E00004461E46FFF7C4FA054610B1284608B049
:1033F00070BD606AA16A00220023CDE90623002384
:1034000004930E2303930C9B029301960094064BA6
:103410004FF4006207F0CFFCA368C3F80003216AF1
:1034200007F0BAFCE2E700BF5D34000083681B7957
:10343000012B0ED110B50446002100F039FB0649DE
:10344000606905F022FF0221204605F02CFF0020D4
:1034500010BD6FF08500704790B4000010B50446B1
:10346000406803689B680021984700B110BD204662
:10347000FFF7DCFF0028F9D114E0194A02212046A9
:1034800006F099FAF2E7174A0221204605F0D1FE2C
:10349000154A0021204605F0CCFEA06800F53B70DF
:1034A00003F01AF9A06800F527704FF0FF324FF0D3
:1034B000FF33032103F0EAFF03460028DDD1A068B3
:1034C00000F53B704FF0FF324FF0FF3303F07AF816
:1034D000606803685B69002BD5D09847D3E700BFCD
:1034E00098B60000239200000595000010B5044630
:1034F00013460A460146054805F0C9FA23691B79B7
:1035000003B910BD204606F065F8FAE7ED95000016
:10351000F8B5037873B10B88C21812F8014C134A3E
:10352000A25C12F0080F06D0013B9BB20B80002B6F
:10353000F1D10370F8BD0024C45400E01C46631CA4
:103540009BB20619055D094AAA5C12F0080FF5D175
:10355000002CEFD00D460A88121B0132314607F0CD
:10356000B7FD2B881C1B2C80E4E700BF29C400009A
:103570002DE9F8430746056800269EE06C1C25B13E
:103580002846FCF749FF82B200E000222146284687
:1035900007F09EFD013590E06E1C25B12846FCF732
:1035A0003BFF82B200E000223146284607F090FD42
:1035B000264682E06C1C25B12846FCF72DFF82B21E
:1035C00000E000222146284607F082FD002674E034
:1035D0006C1C25B12846FCF71FFF82B200E00022D8
:1035E0002146284607F074FD013566E0A3F130025C
:1035F00052B242EAC9025FFA82F908F101085FFAA1
:1036000088F8B8F1040F06D815F80830A3F1300295
:10361000D2B2072AEAD9B8F1020F67D908F1FF340C
:103620002C444DB12846FCF7F7FE82B205E04FF07E
:1036300000094FF00208E4E70022A2EB0802023280
:103640002146284607F044FD05F8019B35E0A3F12B
:103650006102D2B2052A1AD8573B5BB243EA09137A
:103660005FFA83F908F101085FFA88F8B8F1030FEF
:1036700019D815F80830A3F13002D2B2092AE6D8D9
:10368000303B5BB243EA09135FFA83F9EAE7A3F13F
:103690004102D2B2052A06D8373B5BB243EA09138E
:1036A0005FFA83F9DEE7B8F1020F26D826B91F4B7F
:1036B000E35C13F0080F34D101352C788CB346B994
:1036C000272C3FF469AF5C2C3FF458AF222C3FF419
:1036D00063AFA6423FF46EAF002EE7D05C2CE5D17D
:1036E0006B789E423FF474AF302BA0D0782BDDD1A5
:1036F0004FF000094FF00208B8E708F1FF342C44FE
:1037000025B12846FCF788FE82B200E00022A2EB39
:10371000080202322146284607F0DAFC05F8019B30
:10372000CBE73D603046BDE8F88300BF29C4000008
:1037300070B582B004460D4601921E4600202060FE
:1037400003E05A1C019200221A70019B197889B17A
:103750000B4A8A5C12F0080FF3D123685A1C2260CE
:10376000019A45F823202368B34203D001A8FFF74C
:10377000FFFEEAE72368002245F8232002B070BD6F
:1037800029C40000034670B18068F8B10378B3B172
:1037900010B514460B4642682146184690472068EB
:1037A00000B1204610BD0B4A0B48121AB1EBD20FE4
:1037B00003D200EBC1014868704718467047426861
:1037C00001EB81018B00D018D35803B17047184624
:1037D000704700BF08B30000D0B20000F8B506463D
:1037E00030B1FCF719FE85B286B30024274608E005
:1037F0000025F9E70137BFB2013292B20EE0013481
:10380000A4B2AC466B1E9C4220DA2046315D104BC0
:10381000CB5C13F0080FF2D0621C92B29542EED945
:10382000B11816F802E00A4B1EF8033013F0080F27
:10383000E0D1002FE3D00130ACEB02020132304482
:1038400007F046FCED1BADB20027D8E7F8BD00BF7E
:1038500029C40000F0B406460020074605E0002B0E
:103860000CDD13E00127013080B210FB03F40C449F
:10387000A4B20CB9002B09DB9442F0D0355D044CA6
:103880002C5D14F0070FEDD1002FECD0F0BC704789
:1038900029C4000021B30B46826892F82F10994288
:1038A0001ED000B583B01B218DF800105B218DF870
:1038B000011034218DF8021003F12F018DF803104F
:1038C0006D218DF8041000218DF8051082F82F303D
:1038D0006A460449406905F06BFF03B05DF804FBDC
:1038E000704700BFBCB6000071B108B5406981EAFD
:1038F000E172A2EBE172002904DD4123034905F0E6
:1039000057FF08BD4223F9E7704700BF00B700002A
:1039100071B108B5406981EAE172A2EBE172002958
:1039200004DD4323034905F043FF08BD4423F9E7C1
:10393000704700BF00B7000010B583689A8E541C12
:103940009C86134483F838108368D3F8583213F0F8
:10395000040F00D110BD0A4604460749406905F02E
:1039600027FF204605F052FF0028F3D00349606985
:1039700005F01EFFEEE700BF04B7000074B60000BC
:1039800038B5044605F042FF70B9A3685D8E18682B
:1039900078B1FCF741FD80B22844A3685A8D90FBB2
:1039A000F2F302FB130018B90349606905F000FF48
:1039B00038BD0020F0E700BF74B600002DE9F041EB
:1039C00005468468628EA18E04F1200005F057FE42
:1039D000B4F82480E78CAB685E8E1868D0B1FCF731
:1039E0001BFD80B23044AB685A8D90FBF2F302FBB2
:1039F000130088B1B84514D0E18CA38CC91A2846AD
:103A0000FFF772FF218C638CC91A2846FFF780FFED
:103A1000BDE8F0810020E5E70549686905F0C8FECA
:103A2000E8E7218C638CC91A2846FFF771FFEFE79E
:103A300074B6000008B583689A8E5A8683689A8E99
:103A40001344002283F83820024A0349406905F0F4
:103A5000AFFE08BDF0B60000BCB6000010B50446CD
:103A60008068428E818E203005F009FEA368198C93
:103A7000C1F101012046FFF74BFFA368998C013982
:103A80002046FFF731FF034A0349606905F090FEC5
:103A900010BD00BFF0B60000BCB6000008B58268DB
:103AA00038320249406905F083FE08BDBCB600000B
:103AB000836893F82E208A422AD000B583B083F819
:103AC0002E10F9B11B238DF800305B238DF80130E7
:103AD00031238DF802303B238DF8033033238DF8EA
:103AE00004302F318DF805106D238DF8063000233A
:103AF0008DF807306A460749406905F059FE03B062
:103B00005DF804FB044A0349406905F051FEF6E7FD
:103B1000704700BFBCB60000FCB60000F8B5826874
:103B2000948E04F13703134402F13805528E002AB3
:103B300041D0002C3FD00024AB4206D31978202975
:103B400003D10134A4B2013BF6E7AB4206D31978A6
:103B5000202903D00134A4B2013BF6E705465E1CE0
:103B6000611C121B1944304607F0B2FAAA68538E42
:103B70001B1B5386AB685A8E1344002783F838709A
:103B8000614209B2284605F057FE0B4C0B4A21460C
:103B9000686905F00DFE334622463946284605F091
:103BA0000AFF074A2146686905F002FE054A2146D8
:103BB000686905F0FDFDF8BDBCB60000F4B6000074
:103BC000F0B60000F8B60000F8B504460E461746F9
:103BD0003ABBA268938E38331344164A002120461C
:103BE00005F0E9FEA3685A8E9A86A3685D8E186870
:103BF000E8B1FCF711FC80B22844A3685A8D90FB11
:103C0000F2F302FB130030B907B106B91FB90A4934
:103C1000606905F0CDFD714209B2204605F00CFE49
:103C2000F8BD064A0349406905F0C2FDD1E700200E
:103C3000E2E700BFBCB6000074B60000F0B60000BA
:103C400008B583681B68024A032105F0B4FE08BD6D
:103C5000BCB6000010B503681C68A3682BB19B6C50
:103C60001BB10246044920469847A3689B6A0BB1E2
:103C70002046984710BD00BF799C000010B582B067
:103C8000064802F0F9FA0024009401231A4601467E
:103C90000348FFF7A3FB204602B010BD08B70000A1
:103CA000A4B20000002978D02DE9F8430E4617464B
:103CB00081460BB9002404E01146FFF729FEF9E71D
:103CC0000134325D354BD35C13F0080FF8D155E069
:103CD000D9F8140005F07EFC2A463119484605F053
:103CE00014FE08F101042E49D9F8140005F0E2FF92
:103CF00039464846FFF70CFE3119D9F8140005F093
:103D0000D9FF2749D9F8140005F0D4FFBDE8F8839E
:103D100000258542F0D204EB050816F808300A2B7E
:103D2000D6D00135F5E7DA1994450CD90133E218FC
:103D3000B55C1A4AA95C11F0080FF4D00A2D01D025
:103D40009846F0E79846D9F8140005F043FC42463F
:103D50003119484605F0D9FD4444325D0F4BD35C20
:103D600013F0080F01D00134F7E70D49D9F814001A
:103D700005F0A0FF39464846FFF7CAFD3046FCF77C
:103D80004BFB80B2001BD9F80830B3F82AC0ACEB6B
:103D900007088045BCD20023C9E7704729C400004A
:103DA00074B600002DE9F04184B006460C46154675
:103DB0001F461D48FCF730FB05EB400264B392B28E
:103DC00001321FFA82F82046FCF726FB80B22D1A3A
:103DD000ADB220238DF80F300094134B134A00210D
:103DE000304605F0E8FD0024AC4208D201220DF176
:103DF0000F01304605F089FD0134A4B2F4E70A4B07
:103E00000B4A0021304605F0D6FD47B1002342465B
:103E100039463046FFF746FF04B0BDE8F08105495A
:103E2000706905F047FFF7E784B7000068B7000046
:103E300070B7000074B60000F0B587B0074686681A
:103E4000083600210C4606E0FCF7E6FA80B2844210
:103E500038BF044629464D1C01AA3046FFF792FCA4
:103E6000034620B118680028EED10020EFE70CB916
:103E700007B0F0BD0A4A0021384605F09CFD00213C
:103E80004D1C01AA3046FFF77DFC01460028EFD00B
:103E90004B68224609683846FFF784FF2946EFE75A
:103EA00074B7000070B582B0044683689868D0B1DA
:103EB000FCF7B2FA85B20D4E3046FCF7ADFA15FAB2
:103EC00080F5ADB2A3689B680096094A00212046A0
:103ED00005F071FDA16800232A46C9682046FFF756
:103EE000E1FE02B070BD0025E5E700BF64B7000049
:103EF00068B7000038B50446064D074A29464069B0
:103F000005F020FF054A2946606905F01BFF0020E7
:103F100038BD00BFBCB60000F4B70000F8B7000021
:103F200010B50446064A0749406905F00BFFA3682F
:103F300050225A85A36818221A85002010BD00BFA0
:103F400000B80000BCB6000008B583691B68034ACE
:103F5000002105F031FB002008BD00BF50BA000071
:103F600000B583B002290ED08368D3F8583213F01D
:103F7000040F13D00A4B0B4A002105F01DFB002053
:103F800003B05DF804FB53680193074B009313687B
:103F9000064A05F011FB6FF01500F1E7044BEAE764
:103FA0000CB8000034B800001CB8000010B80000C5
:103FB00008B8000010B50446054A002105F0FCFAD7
:103FC000044A0021204605F0F7FA002010BD00BF8A
:103FD00050B8000040B9000070B584B00446002518
:103FE000A2680DF10E0302F59C720121E06805F054
:103FF000E8FEBDF80E3063B16E1CA36803F59C7338
:1040000000932B46064A0021204605F0D5FA354696
:10401000E6E7A368002083F8380104B070BD00BF54
:1040200008BA00002DE9F04383B005460F46164656
:1040300000248DF803400C80148080684FF4807257
:10404000214600F59C7007F05DF84849686905F065
:1040500079FE686905F0BEFAA046B8F57A7F15D3F7
:104060006FF073007BE04FF47A7006F091FE08F178
:1040700001081FFA88F8F0E7522B1DD0AA682244E5
:1040800082F838310134A4B2092C62D86868036818
:10409000D3F8109001AB01220DF10301C847019B39
:1040A000002BE0D09DF803301B2BE5D0AA6892F8D6
:1040B00038211B2AE0D0E9E7AB681C44002384F8D0
:1040C0003831AB6893F839215B2A15D10223AA68ED
:1040D0001A4492F838213B2A14D0318801EB81012F
:1040E000480080B201339BB20244303A3280FF2B49
:1040F000EDD96FF0790032E0002283F838216FF0BB
:1041000004002CE001339BB2FF2B2BD8AA681A4481
:1041100092F8382172B1398801EB8101480080B2F0
:1041200001339BB20244303A3A80FF2BEED96FF054
:10413000790014E03B88FA2B01D9FA233B803388BD
:10414000FA2B01D9FA233380AB68002083F83801B9
:1041500005E0AB68002283F838216FF00B0003B054
:10416000BDE8F0836FF00400F9E700BF48B8000035
:1041700030B583B00446144A1449406905F0E2FDA5
:104180006FF0F9012046FFF7AFFBFA212046FFF759
:10419000BFFB01AA0DF106012046FFF743FF80B9DE
:1041A0000546A368BDF806205A85A368BDF804201B
:1041B0001A85074A0549606905F0C4FD284603B021
:1041C00030BD6FF08505F4E7ECB70000BCB6000029
:1041D000F0B7000010B582B00446012906D1FFF700
:1041E000C7FF034670B9184602B010BD536801936B
:1041F0000B4B009313680B4A022105F0DDF96FF0B9
:104200001503F0E7A36850225A85A36818221A857F
:10421000054A0421204605F0CFF96FF00703E2E7D5
:104220001CB8000010B8000014BA00002DE9F047D7
:1042300086B082460F4616464FF0000949464FF0B9
:1042400002080DE033461C4A0421504605F0B3FB3A
:10425000B9F1000F25D1404606B0BDE8F0872946E8
:104260004D1C01AA3846FFF78DFA04460028EFD00E
:1042700000222168304604F098FB0028EFD1DAF8DC
:1042800008003346226800F1360100F59C7005F005
:1042900038FE80460128D5D00028D9D109F101097E
:1042A000DDE7DAF80800324600F1360100F59C70CF
:1042B00005F0FCF9CFE700BF18C0000010B5044CB2
:1042C000044B9C4203D254F8043B9847F8E710BDD6
:1042D000A0B20000A4B20000064B1B684BB110B5A1
:1042E0005C1E044A52F8233098472346002CF7D12D
:1042F00010BD704798B2000010B504460A2807D0D8
:10430000074B1868E1B283685B689847204610BD88
:10431000034B186883685B680D219847F0E700BF7E
:10432000380E002010B5044C204600F005FD204654
:10433000FEF708FB10BD00BFF942000008B50448B5
:1043400001F09AFF034B1860FFF7ECFF002008BD57
:1043500008B70000380E002008B501214FF4807026
:1043600005F062FE28B100210A4805F083FE437A79
:1043700033B102214FF4827005F056FE28B908BD12
:104380000021044805F04CFFF3E70121014805F046
:1043900047FFF4E70803002020F07F40014BC3F8FB
:1043A0004005704700100140014BD3F840057047AD
:1043B0000010014082B0044B00221A601B68019378
:1043C000019B02B0704700BF40110140024B4FF407
:1043D0008032C3F84423704700100140024B4FF471
:1043E0008032C3F80823704700100140024B4FF49D
:1043F0008032C3F80423704700100140014BD3F80A
:10440000040570470010014038B5FFF7D3FFFFF7F0
:10441000CBFF054D2C68214605F038FF04442C6085
:1044200002F030FF38BD00BF540E002038B5FFF752
:10443000E5FF0446FFF7B8FF0546FFF7BBFF204640
:10444000FFF7AAFFFFF7C2FF2146284605F01EFF2F
:10445000012805D0054B4FF40032C3F8802138BD48
:104460000F2006F095FCFFF7A5FFF3E700E100E061
:1044700038B5134801F000FFF0B1826812680121DD
:104480009047104D0024C5F80845FFF793FF0E4BE9
:104490004FF40032C3F88021FFF7A8FF2246012124
:1044A000112000F0CDF9112000F098F90123074AFE
:1044B00013602B60204638BD4FF0FF30FBE700BF94
:1044C00088C000000010014000E100E00810014039
:1044D00038B5B0F1FF3F1ED0441E114B9C4201DCA9
:1044E000002C1BDD0E4B9C4200DD0E4CFFF786FFBF
:1044F0000D4B1D68294605F0C9FEB0F5000F00D32D
:10450000002420440130B0F5000F00D305482844B2
:1045100005F0F2FE38BD00F50000DDE70024E5E718
:10452000FEFF7F00FFFF7F00540E002010B54FF00C
:104530002003EFF3118483F31188BFF36F8FFFF72C
:104540005DFF044B196805F0A1FE84F31188BFF3E9
:104550006F8F10BD540E002038B54FF02003EFF3DD
:10456000118583F31188BFF36F8FFFF747FF054B6A
:104570001C68214605F08AFE204485F31188BFF3AC
:104580006F8F38BD540E002008B5024803F0FCF9C7
:1045900008BD00BF9CC0000038B108B542683AB100
:1045A000006802F099F8002008BD6FF4E040704701
:1045B0000048F9E7EA8FFFFF08B560B142686AB1C9
:1045C00000684FF0FF324FF0FF3301F0FBFF03466E
:1045D00030B9184608BD6FF4E043FAE7014BF8E73D
:1045E000014BF6E7EA8FFFFFE98FFFFF10B50446A6
:1045F00070B163685BB113F0020F0ED02368002224
:104600001A605A609A60DA601A610023636010BD14
:10461000054B5B6805489847EBE72168044801F0C3
:10462000A9FF00232360F0E7E0000020B4C00000F1
:10463000580E002010B5044658B163680BB92368C2
:1046400063B1206806F007FA636843F00103636012
:1046500010BD104B5B6810489847EEE74FF0FF32F3
:104660004FF0FF3321460D4801F04AFF08B9236897
:104670001BB9084B5B680A489847236800221A60F8
:104680005A609A60DA601A61636843F002036360FB
:10469000D7E700BFE0000020B4C00000580E0020A3
:1046A000DCC0000008B5402314220449044806F089
:1046B000B0F90449044803F0CBF908BD740E00209A
:1046C000580E00200CC10000A4C00000114B0322B2
:1046D0001A615A6110499961104ADA614FF4806297
:1046E0001A6200229A625A62DA6219660C495966A5
:1046F000102199661A67DA665A670A4A1068C3F881
:104700000700094A92E803001860998020229A71F4
:10471000704700BF7413002020C100002C1400203B
:104720001C1400202CC1000030C10000034B43F8D2
:10473000302003EBC0035960704700BF88010020A0
:10474000094A9368D86609490968196708494B6896
:1047500043F080534B60002383F31188BFF36F8FC6
:104760009368186F704700BFE4190020A8C20000CA
:1047700000ED00E00F498A684FF030001044EFF37D
:10478000098C80E8F01F202080F31188BFF36F8F21
:10479000094F4FF000664A6A8A603E60D06E00237F
:1047A000D36680F3118802F1300090E8F01F8CF39B
:1047B00009887047E419002004ED00E01EF0040FA2
:1047C0000CBFEFF30880EFF30980816911F8021C38
:1047D0000229FFD001B505F0BDFD01BD43B2002B9C
:1047E00008DB00F01F005B09012202FA00F0024A18
:1047F00042F82300704700BF00E100E043B2002B05
:104800000DDB00F01F005B09012202FA00F02033EB
:10481000034A42F82300BFF34F8FBFF36F8F7047F7
:1048200000E100E04209054B53F8222000F01F0090
:10483000012303FA00F01040704700BF00E100E0E0
:10484000013143B2002B08DB4901C9B203F16043D7
:1048500003F5614383F80013704700F00F0049012E
:10486000C9B2014B1954704714ED00E008B572B697
:10487000044B186A08B962B608BD00221A6206F035
:10488000A1F8F8E7E419002010B48C18016642661C
:10489000A4F1200222F00702094921F001019161EF
:1048A0001360019B5360029B9360039BD3604FF0A6
:1048B0008073D36102650023C36610BC704700BFDC
:1048C000158E0000F8B506460C4617461D4600F04A
:1048D000C7F93C4424F00704074B9E60284684F344
:1048E0000988002163B681F31188BFF36F8F00221E
:1048F000002304F08FFA00BFE419002001491022C0
:104900000A60704710ED00E072B6404080F31188F5
:10491000BFF36F8FBFF34F8F30BF62B6BFF36F8FA0
:10492000704700BF30BFFFF7FDBF00BF08B50E4B9B
:104930000E4A22F07F029A60BFF34F8FBFF36F8F52
:10494000D3F8882022F47002C3F88820EFF3148390
:1049500023F0040383F3148801F03AFD01F044FDD1
:1049600000F03EF901F082FD00ED00E000000000E3
:1049700001B572B60B4A106A00281EBF00211162F1
:1049800006F020F862B6EFF30580A0F110004FEAC0
:10499000C0000549014409C99847BDE801400349E1
:1049A00008470000E419002088010020C54B0000E2
:1049B00005F072FD202080F3118808484FF4006153
:1049C000401880F30988EFF314800221084380F334
:1049D0001488BFF36F8FFFF7A9FF0000B8270020EE
:1049E000EFF30880EFF30981724601B500F090F80B
:1049F00001BD00BF10B514460F4B9A6A9A6A9B6AB4
:104A000013F0020F0BD00C4B5A6B9B6A13F0800F04
:104A100005D021B1084A936A23F080039362064BC4
:104A20009A6A9A6A9A6A9A6A42F0FF029A6205F052
:104A3000A4FC2070002010BD00ED00E010B514466D
:104A4000124B9A6A9A6A9B6A13F4007F0BD00F4B41
:104A50009A6B9B6A13F4004F05D021B10B4A936AFD
:104A600023F400439362094B9A6A9B6A13F4807F94
:104A700001D1064B9B6A054A936A43F47F439362D4
:104A800005F07BFC2070002010BD00BF00ED00E0B1
:104A9000074B9A6A9A6A9A6A9A6A9A6A9A6A9A6AA8
:104AA0006FEA02426FEA12429A620020704700BF2A
:104AB00000ED00E038B500230B70124BDC6A14F0F7
:104AC00002041DD10546D86A10F0804019D00A466C
:104AD000284628331B7843B90B4B1B784BB90B4B3B
:104AE0001B889BB24BB920460BE00121FFF782FFE8
:104AF00007E00121FFF7A2FF03E0FFF7C9FF00E095
:104B0000002038BD00ED00E029ED00E02AED00E0D6
:104B1000F0B58BB0264B5B68C3F30803002585F323
:104B20001188BFF36F8F02F07F45B5F17F4F17D12A
:104B300002F00C05082D16D012F0080F0DD00C460F
:104B400000260DF127021946204605F018FC0746FD
:104B50009DF8273053B10BB0F0BD04460126F0E7B5
:104B600000263446EDE700263446EAE701AD20682A
:104B70006168A268E3680FC520696169A269E36999
:104B80000FC54EB1089BC3F308025AB96FEA53230D
:104B90006FEA4323089305E0089B23F4FF7323F097
:104BA0000103089301A9384605F0D0FBD3E700BF05
:104BB00000ED00E0024A536943F01003536170476F
:104BC00000ED00E0044B9968586A884203D003491D
:104BD0004FF080520A607047E419002004ED00E0B5
:104BE000002206E002F00F01094B0B442021197648
:104BF00001322F2A0ADC53B2002BF3DB03F16043AE
:104C000003F56143202183F80013F1E7704700BFEB
:104C1000FCEC00E038B505464FF02003EFF31184BB
:104C200083F31188BFF36F8F01F09AFF0A4B9B68E3
:104C3000AB4203D0204605F053FF38BD074B5B68FD
:104C4000C3F308032BB1054A536843F08053536004
:104C5000F0E72046FFF774FDE419002000ED00E0C6
:104C600000B585B0084B0193084B0293084B0393A2
:104C700001AB0093074B084A0121684605F0FBFB96
:104C800005B05DF804FB00BF00000020000000003C
:104C900000000B060000042000000020064A90607F
:104CA0000B6823F01F03034343F01003D3608B68AA
:104CB00043F001031361704790ED00E010B5034C21
:104CC0000123227805F0B1FB207010BD611A00208D
:104CD000034B05225A60BFF34F8FBFF36F8F7047AE
:104CE00090ED00E0BFF35F8F014B00225A607047E8
:104CF00090ED00E038B50E4B1D68082D15D8FFF774
:104D0000F1FF0024A5420AD9094B596804EB44027B
:104D1000930019442046FFF7C1FF0134F2E7054B29
:104D20001D70FFF7D5FF002038BD4FF0FF30FBE7C7
:104D300038C10000611A0020014B1860704700BFA5
:104D4000A4000020F8B505460F46002404E0094BF6
:104D50001B68307898470134BC4208DA2E192B5D65
:104D60000A2BF4D1034B1B680D209847EFE7384618
:104D7000F8BD00BFA400002008B5052202490120AB
:104D800005F080FBFEE700BF54B4000038B50446D0
:104D90004FF0FF324FF0FF330B4804F02BF80B4B72
:104DA00018680B4BC5182044C3F1005303F580234A
:104DB000984202D2054B186001E04FF0FF350248DF
:104DC00004F013F8284638BDF80300202C18002002
:104DD000B83100204FF02003EFF3118283F31188E4
:104DE000BFF36F8F01230649C1F840354FF0804172
:104DF000C1F8783582F31188BFF36F8F00207047B8
:104E000000E0014030B108B58001034B43F00103DD
:104E1000984708BD704700BF00B40000F0B583B0EC
:104E200006460C461546154B186848B1A2B2836871
:104E30001B68314698470346C00F07D103B0F0BD49
:104E40000F4801F019FA0D4B1860EFE7A5B90427D8
:104E500001E070513D44A5420CD2FFF77DFB01906B
:104E6000631B032BF5D82A4601A9304406F022F92A
:104E70002F46EFE70020E1E71846DFE73018002073
:104E800068C1000000B583B00C4B186858B1836846
:104E90001B6804220DEB02019847002809DB0198EA
:104EA00003B05DF804FB064801F0E6F9034B186017
:104EB000EDE7FFF751FB0190F1E700BF301800204C
:104EC00068C100000023072B42D8F0B482B003F57C
:104ED000A272214C54F8222012F0030F08D00133A3
:104EE000DBB2072BF3D96FF0120002B0F0BC7047B1
:104EF00003F14002920094B2174E03F5A27556F8E2
:104F0000252022F44F3222F4407246F8252056F82C
:104F10002570020202F47C52090401F440310A4374
:104F20003A4346F8252004F1804202F5C0420020B1
:104F3000106012680192019A56F8252042F0010291
:104F400046F82520012202FA03F3C6F80433CCE721
:104F50006FF01200704700BF0060004010B4134BA8
:104F6000D3F80443E4B2002300E00133072B1BD83D
:104F700003F5A2720D4951F82220C2F30522904296
:104F8000F3D124FA03F212F0010FEED00A4603F532
:104F9000A27051F8201021F0010142F820100121E7
:104FA00001FA03F3C2F8083310BC704700600040F8
:104FB00070B50D46C66843681B7A01F01F0444EAC9
:104FC00043142046FFF7CAFF1F2C03D904F01F002B
:104FD000244A02E020464FF0A04200F5E07152F86A
:104FE000213023F4403342F82130F368EB4013F0D2
:104FF000010F32D03369EB4013F0010F2FD0B369AA
:10500000EB4013F0010F13D0F369EB4013F0010FE5
:1050100007D1736923FA05F515F0010F06D00121B8
:1050200000E003212046FFF74DFF17E00221F9E7DA
:10503000736923FA05F515F0010F0CD1032100F572
:10504000E07052F8203023F4403343EA014342F841
:105050002030002002E00221F1E7002070BD002096
:10506000FCE700BF00030050F0B443685F68374BB3
:105070001340B3F5801F23D012D9B3F5800F27D08A
:1050800016D9334CA34225D0B3F5A00F5BD103242E
:1050900012F0100F20D112F0200F47D001251CE094
:1050A000022B0FD0062B0FD083B16FF015003BE021
:1050B000284CA34201D10724EAE76FF0150033E042
:1050C0000124E5E70424E3E70624E1E70024DFE721
:1050D0000224DDE70524DBE70325C2F3402312F4B5
:1050E000807F0CBF0126002612F4007F06D012F448
:1050F000006F1DD001228A40C7F808254268127A45
:1051000001F01F0141EA42111F2919D901F01F01C5
:10511000114A43EA460343EA850343EA042301F5BF
:10512000E07142F821300020F0BC70470025D4E740
:1051300012F4806FE2D001228A40C7F80C25DDE727
:105140004FF0A042E5E76FF01500EDE70600F00034
:1051500002004000060010000003005070B5C46853
:1051600045682E7A01F01F0545EA4615B2F5A03FC5
:105170002DD0B2F5005F3CD0E56801268E40354366
:10518000E560B2F5005F3AD0256901268E403543CF
:105190002561B2F5A03F38D0A26901258D4022EAF1
:1051A0000502A261B3F5C02F34D0E26901258D401C
:1051B00022EA0502E261B3F5802F30D06369012253
:1051C0008A4023EA02036361FFF7F2FE70BD1F2DE0
:1051D0000CD905F01F05144E05F5E07556F825505D
:1051E00015F0010FC5D06FF08500EFE74FF0A04636
:1051F000F2E7E56801268E4025EA0605C0E7256945
:1052000001268E4025EA0605C2E7A26901258D40E8
:105210002A43C6E7E26901258D402A43CAE763694C
:1052200001228A401343CEE700030050F0B4C66861
:1052300047683369F2681A40B369F1690B4322EA9F
:1052400003020121002012E04FF0020C1EE04FF09B
:10525000A04503F5E07355F8234024F4403444EAB4
:105260000C4445F8234022EA0102013049009AB17A
:105270001142FAD03C7A00F01F0343EA44137469E8
:10528000C44014F0010FDFD14FF0030C1F2BDED907
:1052900003F01F03014DDCE7F0BC70470003005032
:1052A000F0B4C36847681A69D9680A409969D8692F
:1052B000014322EA01027968D1F810155869484083
:1052C00022EA0000012100240DE04FF0A04603F582
:1052D000E07356F8235025F4403546F8235022EA6F
:1052E00001020134490062B10A42FAD03D7A04F069
:1052F0001F0343EA45131F2BE7D903F01F03024E98
:10530000E5E7F0BC704700BF0003005008B50B4B49
:105310001B780BB1002008BD084B01221A70002237
:1053200005210620FFF78CFA0620FFF757FA044BF9
:105330004FF00042C3F80423ECE700BF621A0020DC
:1053400000600040F0B585B00023029303934A4B00
:105350001C680CB9002111E0484D2846FFF7A0FF5A
:10536000029005F11000FFF79BFF0390424B0022D3
:105370001A601B680093009BECE70131072930D8C5
:1053800001F140039B009AB201238B403C48D0F8C6
:1053900004030342F1D002F1804303F5C0431B68CC
:1053A000002BEAD001F5A273354850F823301B0AD0
:1053B000C3F3401003F01F03012505FA03F304AD06
:1053C00005EB800050F8085C1D4340F8085C02F1D2
:1053D000804303F5C04300221A601B680193019BC0
:1053E000CBE7029E2EB9039E06BB002C3BD105B035
:1053F000F0BD224BDF68796819B10D4649B10D68DF
:1054000007E00D4605E07DB12B4605B12B68294626
:105410001D460029E7D08A6832403B691A42F2D023
:105420004B6816489847EEE72B46F0E7134BDF69C9
:10543000796819B10D4649B10D6807E00D4605E0E0
:105440007DB12B4605B12B6829461D460029CCD0DD
:105450008A6832403B691A42F2D04B680948984743
:10546000EEE72B46F0E7054C2046FFF7DFFE04F1A0
:105470001000FFF7DBFEBAE77C6100405803002014
:105480000060004068030020054B1B6823B9054BF2
:105490001B781BB101207047012070470020704726
:1054A0001C210040631A002082B0054A00231360CB
:1054B00012680192019A034A137002B0704700BF4C
:1054C0001C210040631A002047F6122399426DD038
:1054D00010D9B1F5E13F79D040D9B1F5E12F7CD0B9
:1054E00057D8B1F5613F7AD0404B99424ED14FF039
:1054F000806356E0B1F5965F5BD018D8B1F5167FA2
:1055000059D008D9B1F5966F58D0B1F5166F0BD1B7
:105510004FF41D2345E0B1F5967F02D14FF4A0333F
:105520003FE06FF0150070476FF015007047B1F560
:10553000615F46D007D9B1F5964F45D0B1F5E14F3F
:1055400009D12B4B2DE0B1F5165F01D1294B28E095
:105550006FF0150070476FF0150070474DF6C023CF
:10556000994235D007D9B1F5614F34D0B1F5963FA6
:1055700009D1214B15E0B1F5164F01D11F4B10E0B9
:105580006FF0150070476FF0150070476FF0150051
:105590007047B1F5612F24D0194B994223D14FF0B8
:1055A0008053184AC2F82435002070474FF4000396
:1055B000F7E7154BF5E74FF41C33F2E74FF49E2362
:1055C000EFE74FF46C13ECE7104BEAE7104BE8E71A
:1055D0004FF46503E5E70F4BE3E70F4BE1E70F4BB4
:1055E000DFE70F4BDDE76FF01500704790D0030049
:1055F00000F075000050270000903A0100509D0017
:1056000040420F000020004000B0130000A04E00F8
:1056100000E0D70100F0EB0000705F0700B0AF03BF
:1056200000D0BE0E094B1B6863B182B0074B00204F
:1056300018601B680193019B054BD3F818350B705C
:1056400002B070474FF0FF30704700BF08210040A4
:1056500000200040024BD3F88004C3F88004704758
:105660000020004030B583B04B79012B06D0032BCE
:1056700011D06FF08503184603B030BD00238DF8BC
:1056800006308B79032B3AD1CB7943B1012B10D063
:105690006FF08503EFE710238DF80630F1E7002364
:1056A0008DF804300B795BB1022B24D06FF08503A9
:1056B000E1E743681B782BB301238DF80430F1E751
:1056C00000238DF805300C4605460968FFF7FCFEFF
:1056D0000346D0B99DF805109DF806009DF80420FA
:1056E00001430A430A49C1F86C25EA6894E80300BB
:1056F00082E80300BFE70E238DF80530E3E76FF083
:105700008503B8E76FF08503B5E76FF08503B2E76F
:1057100000200040F8B50F46164600242546331BEE
:10572000002B0BDDFFF7B0FE40B1FFF7BDFE631CA1
:10573000395D034AC2F81C15DCB2EFE72846F8BD14
:105740000020004010B483B000231846D41A002C67
:105750000FDD094C246864B1074800240460006828
:1057600001900198581C054CD4F81845CC54C3B28C
:10577000EBE703B010BC7047082100400020004058
:10578000024B0422C3F80423704700BF00200040EE
:10579000024B0422C3F80823704700BF00200040DA
:1057A000024B1868003018BF0120704708210040E4
:1057B000024B4FF40072C3F80423704700200040EE
:1057C000024B4FF40072C3F80823704700200040DA
:1057D00010B504460E4BD3F8043313F0800F08D1F4
:1057E0000B4BD3F8043313F0040F08D100231846F1
:1057F00010BDFFF749FE0028F2D00123F7E720464D
:10580000FFF7CEFF03460028F1D00123EFE700BFEA
:1058100000200040024B1960024B1A60704700BF25
:10582000741800207818002000B583B0084B1B685E
:105830002BB1074B00221A601B680193019B054B9B
:105840001B6813B1044A1068984703B05DF804FB65
:1058500024210040741800207818002008B5054B5A
:105860008022C3F808230C3301221A6005F072F875
:1058700008BD00BF0020004008B505F06AF80D4BD8
:1058800001221A60083B8022C3F804234FF0200253
:10589000EFF3118382F31188BFF36F8F064A1278FA
:1058A0001AB1064A0421C2F8001183F31188BFF32C
:1058B0006F8F08BD08200040631A002000E100E05F
:1058C00038B50C4605F05EFAC0B96425194B0122C3
:1058D000BFF35B8F53E8001F002903D143E800208A
:1058E0000028F7D1BFF35B8F0BD02120002101F0FE
:1058F000D3FA013D15F0FF05E8D11AE00D4B012266
:105900001A60FFF7D1FD0C4B01221A60083BC3F867
:105910001C454FF47A74FFF7B7FD20B9012005F05C
:1059200014F8013CF7D1054B01221A60014B00220B
:105930001A6038BD7C180020082000400C20004070
:1059400030B583B04FF0A0434022C3F808250324AC
:10595000C3F818470021C3F82017184A0825C2F8D1
:1059600014550625C2F80C552025C3F80855C3F870
:105970001447C3F81C170523C2F808350723C2F8DB
:105980001035C168FFF76EFE044610B1204603B023
:1059900030BD0A4B0422C3F80025094900220A60E1
:1059A00009680191019901211960064B19700220C3
:1059B000FEF746FF0220FEF711FFE7E70020004058
:1059C00008210040631A002043681A6847F6122332
:1059D00099426DD010D9B1F5E13F78D040D9B1F5F9
:1059E000E12F7DD058D8B1F5613F7CD0424B994230
:1059F0004FD14FF0806357E0B1F5965F5BD018D878
:105A0000B1F5167F59D008D9B1F5966F58D0B1F5D8
:105A1000166F0BD14FF41D2346E0B1F5967F02D1EE
:105A20004FF4A03340E06FF0150070476FF01500A1
:105A30007047B1F5615F46D007D9B1F5964F44D0B4
:105A4000B1F5E14F09D12D4B2EE0B1F5165F01D133
:105A50002B4B29E06FF0150070476FF01500704771
:105A60004DF6C023994235D007D9B1F5614F34D0F6
:105A7000B1F5963F0AD1234B16E0B1F5164F02D18E
:105A80004FF41D0310E06FF0150070476FF0150024
:105A900070476FF015007047B1F5612F26D01A4B93
:105AA000994226D14FF08053C2F824350020704728
:105AB0004FF40003F8E7154BF6E74FF41C33F3E718
:105AC0004FF49E23F0E7124BEEE7124BECE74FF05A
:105AD000EB73E9E74FF46503E6E74FF46B03E3E7A5
